{
  "address": "0xc0100348D04cb9Bd0Ee505d408C2CC3A71492379",
  "abi": [
    {
      "inputs": [
        {
          "internalType": "address",
          "name": "tablelandRegistry",
          "type": "address"
        }
      ],
      "stateMutability": "nonpayable",
      "type": "constructor"
    },
    {
      "inputs": [
        {
          "internalType": "address",
          "name": "player",
          "type": "address"
        },
        {
          "internalType": "uint256",
          "name": "gameId",
          "type": "uint256"
        }
      ],
      "name": "AlreadyRevealed",
      "type": "error"
    },
    {
      "inputs": [
        {
          "internalType": "uint256",
          "name": "available",
          "type": "uint256"
        },
        {
          "internalType": "uint256",
          "name": "required",
          "type": "uint256"
        }
      ],
      "name": "AmountTooLow",
      "type": "error"
    },
    {
      "inputs": [
        {
          "internalType": "bool",
          "name": "alreadHasP2",
          "type": "bool"
        },
        {
          "internalType": "bool",
          "name": "tryingToJoinOwnGame",
          "type": "bool"
        }
      ],
      "name": "CannotJoinGame",
      "type": "error"
    },
    {
      "inputs": [
        {
          "internalType": "uint256",
          "name": "gameId",
          "type": "uint256"
        }
      ],
      "name": "IndexOutOfBounds",
      "type": "error"
    },
    {
      "inputs": [
        {
          "internalType": "uint256",
          "name": "balance",
          "type": "uint256"
        }
      ],
      "name": "InvalidBalance",
      "type": "error"
    },
    {
      "inputs": [],
      "name": "InvalidPassword",
      "type": "error"
    },
    {
      "inputs": [],
      "name": "NoActiveTimer",
      "type": "error"
    },
    {
      "inputs": [],
      "name": "NoSecondPlayer",
      "type": "error"
    },
    {
      "inputs": [
        {
          "internalType": "uint256",
          "name": "available",
          "type": "uint256"
        },
        {
          "internalType": "uint256",
          "name": "requested",
          "type": "uint256"
        }
      ],
      "name": "NotEnoughMoneyInContract",
      "type": "error"
    },
    {
      "inputs": [
        {
          "internalType": "bool",
          "name": "timerStillRunning",
          "type": "bool"
        },
        {
          "internalType": "bool",
          "name": "p1Revealed",
          "type": "bool"
        },
        {
          "internalType": "bool",
          "name": "p2Revealed",
          "type": "bool"
        },
        {
          "internalType": "bool",
          "name": "alreadyResolved",
          "type": "bool"
        }
      ],
      "name": "NotResolvable",
      "type": "error"
    },
    {
      "inputs": [
        {
          "internalType": "uint256",
          "name": "available",
          "type": "uint256"
        },
        {
          "internalType": "uint256",
          "name": "required",
          "type": "uint256"
        }
      ],
      "name": "PlayerBalanceNotEnough",
      "type": "error"
    },
    {
      "inputs": [],
      "name": "TimerFinished",
      "type": "error"
    },
    {
      "anonymous": false,
      "inputs": [
        {
          "indexed": true,
          "internalType": "address",
          "name": "",
          "type": "address"
        },
        {
          "indexed": false,
          "internalType": "uint256",
          "name": "",
          "type": "uint256"
        },
        {
          "indexed": false,
          "internalType": "uint256",
          "name": "",
          "type": "uint256"
        }
      ],
      "name": "CreatedGame",
      "type": "event"
    },
    {
      "anonymous": false,
      "inputs": [
        {
          "indexed": true,
          "internalType": "address",
          "name": "",
          "type": "address"
        },
        {
          "indexed": false,
          "internalType": "enum PaperRockScissors.Choices",
          "name": "",
          "type": "uint8"
        },
        {
          "indexed": true,
          "internalType": "address",
          "name": "",
          "type": "address"
        },
        {
          "indexed": false,
          "internalType": "enum PaperRockScissors.Choices",
          "name": "",
          "type": "uint8"
        },
        {
          "indexed": false,
          "internalType": "uint256",
          "name": "",
          "type": "uint256"
        },
        {
          "indexed": false,
          "internalType": "uint256",
          "name": "",
          "type": "uint256"
        }
      ],
      "name": "GameDraw",
      "type": "event"
    },
    {
      "anonymous": false,
      "inputs": [
        {
          "indexed": true,
          "internalType": "address",
          "name": "",
          "type": "address"
        },
        {
          "indexed": true,
          "internalType": "address",
          "name": "",
          "type": "address"
        },
        {
          "indexed": false,
          "internalType": "uint256",
          "name": "",
          "type": "uint256"
        },
        {
          "indexed": false,
          "internalType": "uint256",
          "name": "",
          "type": "uint256"
        },
        {
          "indexed": false,
          "internalType": "uint256",
          "name": "",
          "type": "uint256"
        }
      ],
      "name": "JoinedGameOf",
      "type": "event"
    },
    {
      "anonymous": false,
      "inputs": [
        {
          "indexed": true,
          "internalType": "address",
          "name": "previousOwner",
          "type": "address"
        },
        {
          "indexed": true,
          "internalType": "address",
          "name": "newOwner",
          "type": "address"
        }
      ],
      "name": "OwnershipTransferred",
      "type": "event"
    },
    {
      "anonymous": false,
      "inputs": [
        {
          "indexed": true,
          "internalType": "address",
          "name": "",
          "type": "address"
        },
        {
          "indexed": false,
          "internalType": "uint256",
          "name": "",
          "type": "uint256"
        },
        {
          "indexed": false,
          "internalType": "uint256",
          "name": "",
          "type": "uint256"
        }
      ],
      "name": "PaidOut",
      "type": "event"
    },
    {
      "anonymous": false,
      "inputs": [
        {
          "indexed": false,
          "internalType": "address",
          "name": "account",
          "type": "address"
        }
      ],
      "name": "Paused",
      "type": "event"
    },
    {
      "anonymous": false,
      "inputs": [
        {
          "indexed": false,
          "internalType": "address",
          "name": "account",
          "type": "address"
        }
      ],
      "name": "Unpaused",
      "type": "event"
    },
    {
      "anonymous": false,
      "inputs": [
        {
          "indexed": true,
          "internalType": "address",
          "name": "",
          "type": "address"
        },
        {
          "indexed": false,
          "internalType": "enum PaperRockScissors.Choices",
          "name": "",
          "type": "uint8"
        },
        {
          "indexed": true,
          "internalType": "address",
          "name": "",
          "type": "address"
        },
        {
          "indexed": false,
          "internalType": "enum PaperRockScissors.Choices",
          "name": "",
          "type": "uint8"
        },
        {
          "indexed": false,
          "internalType": "uint256",
          "name": "",
          "type": "uint256"
        },
        {
          "indexed": false,
          "internalType": "uint256",
          "name": "",
          "type": "uint256"
        }
      ],
      "name": "WonGameAgainst",
      "type": "event"
    },
    {
      "inputs": [
        {
          "internalType": "address",
          "name": "account",
          "type": "address"
        }
      ],
      "name": "balanceOf",
      "outputs": [
        {
          "internalType": "uint256",
          "name": "",
          "type": "uint256"
        }
      ],
      "stateMutability": "view",
      "type": "function"
    },
    {
      "inputs": [],
      "name": "getBalance",
      "outputs": [
        {
          "internalType": "uint256",
          "name": "",
          "type": "uint256"
        }
      ],
      "stateMutability": "view",
      "type": "function"
    },
    {
      "inputs": [
        {
          "internalType": "uint256",
          "name": "gameId",
          "type": "uint256"
        }
      ],
      "name": "getGame",
      "outputs": [
        {
          "components": [
            {
              "internalType": "bytes32",
              "name": "p1SaltedChoice",
              "type": "bytes32"
            },
            {
              "internalType": "bytes32",
              "name": "encChoice",
              "type": "bytes32"
            },
            {
              "internalType": "enum PaperRockScissors.Choices",
              "name": "p1ClearChoice",
              "type": "uint8"
            },
            {
              "internalType": "enum PaperRockScissors.Choices",
              "name": "p2ClearChoice",
              "type": "uint8"
            },
            {
              "internalType": "address",
              "name": "p1",
              "type": "address"
            },
            {
              "internalType": "address",
              "name": "p2",
              "type": "address"
            },
            {
              "internalType": "uint256",
              "name": "entryFee",
              "type": "uint256"
            },
            {
              "internalType": "uint256",
              "name": "timerStart",
              "type": "uint256"
            },
            {
              "internalType": "bool",
              "name": "resolved",
              "type": "bool"
            }
          ],
          "internalType": "struct PaperRockScissors.Game",
          "name": "",
          "type": "tuple"
        }
      ],
      "stateMutability": "view",
      "type": "function"
    },
    {
      "inputs": [
        {
          "internalType": "uint256",
          "name": "gameId",
          "type": "uint256"
        }
      ],
      "name": "getGameEntryFee",
      "outputs": [
        {
          "internalType": "uint256",
          "name": "",
          "type": "uint256"
        }
      ],
      "stateMutability": "view",
      "type": "function"
    },
    {
      "inputs": [
        {
          "internalType": "uint256",
          "name": "gameId",
          "type": "uint256"
        }
      ],
      "name": "getTimeLeft",
      "outputs": [
        {
          "internalType": "uint256",
          "name": "",
          "type": "uint256"
        }
      ],
      "stateMutability": "view",
      "type": "function"
    },
    {
      "inputs": [
        {
          "internalType": "uint256",
          "name": "gameId",
          "type": "uint256"
        },
        {
          "internalType": "bytes32",
          "name": "encChoice",
          "type": "bytes32"
        },
        {
          "internalType": "uint256",
          "name": "entryFee",
          "type": "uint256"
        }
      ],
      "name": "joinGame",
      "outputs": [],
      "stateMutability": "nonpayable",
      "type": "function"
    },
    {
      "inputs": [],
      "name": "minEntryFee",
      "outputs": [
        {
          "internalType": "uint256",
          "name": "",
          "type": "uint256"
        }
      ],
      "stateMutability": "view",
      "type": "function"
    },
    {
      "inputs": [],
      "name": "owner",
      "outputs": [
        {
          "internalType": "address",
          "name": "",
          "type": "address"
        }
      ],
      "stateMutability": "view",
      "type": "function"
    },
    {
      "inputs": [],
      "name": "pauseGame",
      "outputs": [],
      "stateMutability": "nonpayable",
      "type": "function"
    },
    {
      "inputs": [],
      "name": "paused",
      "outputs": [
        {
          "internalType": "bool",
          "name": "",
          "type": "bool"
        }
      ],
      "stateMutability": "view",
      "type": "function"
    },
    {
      "inputs": [],
      "name": "renounceOwnership",
      "outputs": [],
      "stateMutability": "nonpayable",
      "type": "function"
    },
    {
      "inputs": [
        {
          "internalType": "uint256",
          "name": "gameId",
          "type": "uint256"
        }
      ],
      "name": "resolveGame",
      "outputs": [],
      "stateMutability": "nonpayable",
      "type": "function"
    },
    {
      "inputs": [
        {
          "internalType": "uint256",
          "name": "gameId",
          "type": "uint256"
        },
        {
          "internalType": "string",
          "name": "movePw",
          "type": "string"
        }
      ],
      "name": "revealChoice",
      "outputs": [],
      "stateMutability": "nonpayable",
      "type": "function"
    },
    {
      "inputs": [],
      "name": "revealTimeout",
      "outputs": [
        {
          "internalType": "uint256",
          "name": "",
          "type": "uint256"
        }
      ],
      "stateMutability": "view",
      "type": "function"
    },
    {
      "inputs": [
        {
          "internalType": "uint256",
          "name": "fee",
          "type": "uint256"
        }
      ],
      "name": "setMinEntryFee",
      "outputs": [],
      "stateMutability": "nonpayable",
      "type": "function"
    },
    {
      "inputs": [
        {
          "internalType": "uint256",
          "name": "newTimeout",
          "type": "uint256"
        }
      ],
      "name": "setRevealTimeout",
      "outputs": [],
      "stateMutability": "nonpayable",
      "type": "function"
    },
    {
      "inputs": [
        {
          "internalType": "uint256",
          "name": "pct",
          "type": "uint256"
        }
      ],
      "name": "setTaxPercent",
      "outputs": [],
      "stateMutability": "nonpayable",
      "type": "function"
    },
    {
      "inputs": [
        {
          "internalType": "bytes32",
          "name": "encChoice",
          "type": "bytes32"
        },
        {
          "internalType": "uint256",
          "name": "entryFee",
          "type": "uint256"
        }
      ],
      "name": "startGame",
      "outputs": [],
      "stateMutability": "nonpayable",
      "type": "function"
    },
    {
      "inputs": [],
      "name": "taxPercent",
      "outputs": [
        {
          "internalType": "uint256",
          "name": "",
          "type": "uint256"
        }
      ],
      "stateMutability": "view",
      "type": "function"
    },
    {
      "inputs": [
        {
          "internalType": "address",
          "name": "newOwner",
          "type": "address"
        }
      ],
      "name": "transferOwnership",
      "outputs": [],
      "stateMutability": "nonpayable",
      "type": "function"
    },
    {
      "inputs": [],
      "name": "unpauseGame",
      "outputs": [],
      "stateMutability": "nonpayable",
      "type": "function"
    },
    {
      "inputs": [],
      "name": "withdraw",
      "outputs": [],
      "stateMutability": "payable",
      "type": "function"
    },
    {
      "inputs": [],
      "name": "withdrawTax",
      "outputs": [],
      "stateMutability": "payable",
      "type": "function"
    },
    {
      "stateMutability": "payable",
      "type": "receive"
    }
  ],
  "transactionHash": "0x43b3f1c154b77eaafbd8aae457e6440e0d3faf8513d3cde6307ce8506b5e5f66",
  "args": [
    "0xDA8EA22d092307874f30A1F277D1388dca0BA97a"
  ],
  "numDeployments": 1,
  "solcInputHash": "a50e1c3640841da96bc8bc94d4e196da",
  "bytecode": "0x6080604052662386f26fc10000600355600560045561a8c06006556040518060400160405280600381526020017f7072730000000000000000000000000000000000000000000000000000000000815250600c908051906020019062000067929190620004ef565b503480156200007557600080fd5b5060405162003b8838038062003b8883398181016040528101906200009b919062000609565b620000bb620000af620000f560201b60201c565b620000fd60201b60201c565b600180819055506000600260006101000a81548160ff021916908315150217905550620000ee81620001c160201b60201c565b5062000c1f565b600033905090565b60008060009054906101000a900473ffffffffffffffffffffffffffffffffffffffff169050816000806101000a81548173ffffffffffffffffffffffffffffffffffffffff021916908373ffffffffffffffffffffffffffffffffffffffff1602179055508173ffffffffffffffffffffffffffffffffffffffff168173ffffffffffffffffffffffffffffffffffffffff167f8be0079c531659141344cd1fd0a4f28419497f9722a3daafe3b4186f6b6457e060405160405180910390a35050565b80600960006101000a81548173ffffffffffffffffffffffffffffffffffffffff021916908373ffffffffffffffffffffffffffffffffffffffff16021790555060006040518060e0016040528060a9815260200162003adf60a991399050600960009054906101000a900473ffffffffffffffffffffffffffffffffffffffff1673ffffffffffffffffffffffffffffffffffffffff16633a9151b030600c62000277466200037560201b620017271760201c565b856040516020016200028c9392919062000835565b6040516020818303038152906040526040518363ffffffff1660e01b8152600401620002ba92919062000913565b6020604051808303816000875af1158015620002da573d6000803e3d6000fd5b505050506040513d601f19601f8201168201806040525081019062000300919062000982565b600a81905550600c6200031e466200037560201b620017271760201c565b62000336600a546200037560201b620017271760201c565b6040516020016200034a93929190620009b4565b604051602081830303815290604052600b908051906020019062000370929190620004ef565b505050565b60606000821415620003bf576040518060400160405280600181526020017f30000000000000000000000000000000000000000000000000000000000000008152509050620004ea565b600082905060005b60008214620003f7578080620003dd9062000a3c565b915050600a82620003ef919062000ab9565b9150620003c7565b60008167ffffffffffffffff81111562000416576200041562000af1565b5b6040519080825280601f01601f191660200182016040528015620004495781602001600182028036833780820191505090505b5090505b60008514620004e35760018262000465919062000b20565b9150600a8562000476919062000b5b565b603062000484919062000b93565b60f81b8183815181106200049d576200049c62000bf0565b5b60200101907effffffffffffffffffffffffffffffffffffffffffffffffffffffffffffff1916908160001a905350600a85620004db919062000ab9565b94506200044d565b8093505050505b919050565b828054620004fd9062000690565b90600052602060002090601f0160209004810192826200052157600085556200056d565b82601f106200053c57805160ff19168380011785556200056d565b828001600101855582156200056d579182015b828111156200056c5782518255916020019190600101906200054f565b5b5090506200057c919062000580565b5090565b5b808211156200059b57600081600090555060010162000581565b5090565b600080fd5b600073ffffffffffffffffffffffffffffffffffffffff82169050919050565b6000620005d182620005a4565b9050919050565b620005e381620005c4565b8114620005ef57600080fd5b50565b6000815190506200060381620005d8565b92915050565b6000602082840312156200062257620006216200059f565b5b60006200063284828501620005f2565b91505092915050565b7f435245415445205441424c450000000000000000000000000000000000000000815250565b7f4e487b7100000000000000000000000000000000000000000000000000000000600052602260045260246000fd5b60006002820490506001821680620006a957607f821691505b60208210811415620006c057620006bf62000661565b5b50919050565b600081905092915050565b60008190508160005260206000209050919050565b60008154620006f58162000690565b620007018186620006c6565b945060018216600081146200071f5760018114620007315762000768565b60ff1983168652818601935062000768565b6200073c85620006d1565b60005b8381101562000760578154818901526001820191506020810190506200073f565b838801955050505b50505092915050565b7f5f00000000000000000000000000000000000000000000000000000000000000815250565b600081519050919050565b60005b83811015620007c2578082015181840152602081019050620007a5565b83811115620007d2576000848401525b50505050565b6000620007e58262000797565b620007f18185620006c6565b935062000803818560208601620007a2565b80840191505092915050565b7f2000000000000000000000000000000000000000000000000000000000000000815250565b600062000842826200063b565b600c82019150620008548286620006e6565b9150620008618262000771565b600182019150620008738285620007d8565b915062000880826200080f565b600182019150620008928284620007d8565b9150819050949350505050565b620008aa81620005c4565b82525050565b600082825260208201905092915050565b6000601f19601f8301169050919050565b6000620008df8262000797565b620008eb8185620008b0565b9350620008fd818560208601620007a2565b6200090881620008c1565b840191505092915050565b60006040820190506200092a60008301856200089f565b81810360208301526200093e8184620008d2565b90509392505050565b6000819050919050565b6200095c8162000947565b81146200096857600080fd5b50565b6000815190506200097c8162000951565b92915050565b6000602082840312156200099b576200099a6200059f565b5b6000620009ab848285016200096b565b91505092915050565b6000620009c28286620006e6565b9150620009cf8262000771565b600182019150620009e18285620007d8565b9150620009ee8262000771565b60018201915062000a008284620007d8565b9150819050949350505050565b7f4e487b7100000000000000000000000000000000000000000000000000000000600052601160045260246000fd5b600062000a498262000947565b91507fffffffffffffffffffffffffffffffffffffffffffffffffffffffffffffffff82141562000a7f5762000a7e62000a0d565b5b600182019050919050565b7f4e487b7100000000000000000000000000000000000000000000000000000000600052601260045260246000fd5b600062000ac68262000947565b915062000ad38362000947565b92508262000ae65762000ae562000a8a565b5b828204905092915050565b7f4e487b7100000000000000000000000000000000000000000000000000000000600052604160045260246000fd5b600062000b2d8262000947565b915062000b3a8362000947565b92508282101562000b505762000b4f62000a0d565b5b828203905092915050565b600062000b688262000947565b915062000b758362000947565b92508262000b885762000b8762000a8a565b5b828206905092915050565b600062000ba08262000947565b915062000bad8362000947565b9250827fffffffffffffffffffffffffffffffffffffffffffffffffffffffffffffffff0382111562000be55762000be462000a0d565b5b828201905092915050565b7f4e487b7100000000000000000000000000000000000000000000000000000000600052603260045260246000fd5b612eb08062000c2f6000396000f3fe6080604052600436106101445760003560e01c80637541f41c116100b6578063dc8e9e001161006f578063dc8e9e0014610406578063dfa20f0a1461042f578063e8c5876314610439578063f2fde38b14610476578063f712545b1461049f578063fb8365e0146104c857610155565b80637541f41c146102e257806376e5b8621461030d5780638da5cb5b14610338578063a2f77bcc14610363578063b7a5a5b6146103a0578063dbbf70eb146103c957610155565b8063499831f211610108578063499831f2146101fa5780635b027c33146102115780635c975abb1461023a578063611783861461026557806370a082311461028e578063715018a6146102cb57610155565b806312065fe01461015a578063305243d91461018557806338b640851461019c5780633ccfd60b146101c55780634376cb34146101cf57610155565b366101555761015333346104f1565b005b600080fd5b34801561016657600080fd5b5061016f61051e565b60405161017c9190612355565b60405180910390f35b34801561019157600080fd5b5061019a610526565b005b3480156101a857600080fd5b506101c360048036038101906101be91906123a6565b610538565b005b6101cd61054a565b005b3480156101db57600080fd5b506101e46105fb565b6040516101f19190612355565b60405180910390f35b34801561020657600080fd5b5061020f610601565b005b34801561021d57600080fd5b50610238600480360381019061023391906123a6565b610613565b005b34801561024657600080fd5b5061024f610625565b60405161025c91906123ee565b60405180910390f35b34801561027157600080fd5b5061028c600480360381019061028791906123a6565b61063c565b005b34801561029a57600080fd5b506102b560048036038101906102b09190612467565b61064e565b6040516102c29190612355565b60405180910390f35b3480156102d757600080fd5b506102e0610697565b005b3480156102ee57600080fd5b506102f76106ab565b6040516103049190612355565b60405180910390f35b34801561031957600080fd5b506103226106b1565b60405161032f9190612355565b60405180910390f35b34801561034457600080fd5b5061034d6106b7565b60405161035a91906124a3565b60405180910390f35b34801561036f57600080fd5b5061038a600480360381019061038591906123a6565b6106e0565b6040516103979190612632565b60405180910390f35b3480156103ac57600080fd5b506103c760048036038101906103c291906123a6565b61090f565b005b3480156103d557600080fd5b506103f060048036038101906103eb91906123a6565b610cf7565b6040516103fd9190612355565b60405180910390f35b34801561041257600080fd5b5061042d6004803603810190610428919061267a565b610d12565b005b61043761104f565b005b34801561044557600080fd5b50610460600480360381019061045b91906123a6565b611100565b60405161046d9190612355565b60405180910390f35b34801561048257600080fd5b5061049d60048036038101906104989190612467565b6111e2565b005b3480156104ab57600080fd5b506104c660048036038101906104c19190612732565b611266565b005b3480156104d457600080fd5b506104ef60048036038101906104ea9190612792565b61159d565b005b60006104fc8361064e565b90506000828261050c9190612801565b90506105188482611888565b50505050565b600047905090565b61052e611916565b610536611994565b565b610540611916565b8060068190555050565b6105526119f7565b600061055d3361064e565b9050804710156105a65747816040517fe1310fcf00000000000000000000000000000000000000000000000000000000815260040161059d929190612857565b60405180910390fd5b6105b1336000611888565b3373ffffffffffffffffffffffffffffffffffffffff166108fc829081150290604051600060405180830381858888f193505050501580156105f7573d6000803e3d6000fd5b5050565b60065481565b610609611916565b610611611a41565b565b61061b611916565b8060038190555050565b6000600260009054906101000a900460ff16905090565b610644611916565b8060048190555050565b6000600560008373ffffffffffffffffffffffffffffffffffffffff1673ffffffffffffffffffffffffffffffffffffffff168152602001908152602001600020549050919050565b61069f611916565b6106a96000611aa4565b565b60045481565b60035481565b60008060009054906101000a900473ffffffffffffffffffffffffffffffffffffffff16905090565b6106e8612298565b6000600860008481526020019081526020016000209050600073ffffffffffffffffffffffffffffffffffffffff168160020160029054906101000a900473ffffffffffffffffffffffffffffffffffffffff1673ffffffffffffffffffffffffffffffffffffffff16141561079557826040517f44945fcc00000000000000000000000000000000000000000000000000000000815260040161078c9190612355565b60405180910390fd5b806040518061012001604052908160008201548152602001600182015481526020016002820160009054906101000a900460ff1660048111156107db576107da6124d7565b5b60048111156107ed576107ec6124d7565b5b81526020016002820160019054906101000a900460ff166004811115610816576108156124d7565b5b6004811115610828576108276124d7565b5b81526020016002820160029054906101000a900473ffffffffffffffffffffffffffffffffffffffff1673ffffffffffffffffffffffffffffffffffffffff1673ffffffffffffffffffffffffffffffffffffffff1681526020016003820160009054906101000a900473ffffffffffffffffffffffffffffffffffffffff1673ffffffffffffffffffffffffffffffffffffffff1673ffffffffffffffffffffffffffffffffffffffff16815260200160048201548152602001600582015481526020016006820160009054906101000a900460ff161515151581525050915050919050565b6109176119f7565b6000600860008381526020019081526020016000209050600073ffffffffffffffffffffffffffffffffffffffff168160020160029054906101000a900473ffffffffffffffffffffffffffffffffffffffff1673ffffffffffffffffffffffffffffffffffffffff1614156109c457816040517f44945fcc0000000000000000000000000000000000000000000000000000000081526004016109bb9190612355565b60405180910390fd5b600073ffffffffffffffffffffffffffffffffffffffff168160030160009054906101000a900473ffffffffffffffffffffffffffffffffffffffff1673ffffffffffffffffffffffffffffffffffffffff161415610a4f576040517f39e523ba00000000000000000000000000000000000000000000000000000000815260040160405180910390fd5b8060060160009054906101000a900460ff1615610aac57600080600060016040517f3f79bc1c000000000000000000000000000000000000000000000000000000008152600401610aa39493929190612880565b60405180910390fd5b6000610abb8260050154611b68565b1590506000806004811115610ad357610ad26124d7565b5b8360020160009054906101000a900460ff166004811115610af757610af66124d7565b5b1490506000806004811115610b0f57610b0e6124d7565b5b8460020160019054906101000a900460ff166004811115610b3357610b326124d7565b5b149050828015610b4857508080610b475750815b5b15610b915782828260006040517f3f79bc1c000000000000000000000000000000000000000000000000000000008152600401610b889493929190612880565b60405180910390fd5b600060028560040154610ba491906128c5565b905060018560060160006101000a81548160ff0219169083151502179055508315610c4a57610c408560020160009054906101000a900460ff168660020160019054906101000a900460ff168760020160029054906101000a900473ffffffffffffffffffffffffffffffffffffffff168860030160009054906101000a900473ffffffffffffffffffffffffffffffffffffffff1685611b81565b5050505050610cf4565b83158015610c56575082155b8015610c5f5750815b15610c9c57610c928560020160029054906101000a900473ffffffffffffffffffffffffffffffffffffffff1682611fa7565b5050505050610cf4565b83158015610ca75750825b8015610cb1575081155b15610cee57610ce48560030160009054906101000a900473ffffffffffffffffffffffffffffffffffffffff1682611fa7565b5050505050610cf4565b50505050505b50565b600080610d03836106e0565b90508060c00151915050919050565b806000610d1e3361064e565b905081811015610d675780826040517f3592b9f4000000000000000000000000000000000000000000000000000000008152600401610d5e929190612857565b60405180910390fd5b610d6f6119f7565b600060086000878152602001908152602001600020905060008160020160029054906101000a900473ffffffffffffffffffffffffffffffffffffffff169050600073ffffffffffffffffffffffffffffffffffffffff168173ffffffffffffffffffffffffffffffffffffffff161415610e2157866040517f44945fcc000000000000000000000000000000000000000000000000000000008152600401610e189190612355565b60405180910390fd5b3373ffffffffffffffffffffffffffffffffffffffff168173ffffffffffffffffffffffffffffffffffffffff161415610e9657600060016040517f7274f7b8000000000000000000000000000000000000000000000000000000008152600401610e8d92919061291f565b60405180910390fd5b600073ffffffffffffffffffffffffffffffffffffffff168260030160009054906101000a900473ffffffffffffffffffffffffffffffffffffffff1673ffffffffffffffffffffffffffffffffffffffff1614610f2f57600160006040517f7274f7b8000000000000000000000000000000000000000000000000000000008152600401610f2692919061291f565b60405180910390fd5b8160040154851015610f7e578482600401546040517f1cc6243f000000000000000000000000000000000000000000000000000000008152600401610f75929190612857565b60405180910390fd5b338260030160006101000a81548173ffffffffffffffffffffffffffffffffffffffff021916908373ffffffffffffffffffffffffffffffffffffffff160217905550858260010181905550428260050181905550610fdd3386612021565b8073ffffffffffffffffffffffffffffffffffffffff163373ffffffffffffffffffffffffffffffffffffffff167f70fc8cbbf6bf1c3929b063284d69be02695d9de0c6a918f74b2277d81ee28c4b89884260405161103e93929190612948565b60405180910390a350505050505050565b611057611916565b60006110623061064e565b9050804710156110ab5747816040517fe1310fcf0000000000000000000000000000000000000000000000000000000081526004016110a2929190612857565b60405180910390fd5b6110b6306000611888565b3373ffffffffffffffffffffffffffffffffffffffff166108fc829081150290604051600060405180830381858888f193505050501580156110fc573d6000803e3d6000fd5b5050565b60008061110c836106e0565b905061111b8160e00151611b68565b15611152576040517f7737a3c100000000000000000000000000000000000000000000000000000000815260040160405180910390fd5b600073ffffffffffffffffffffffffffffffffffffffff168160a0015173ffffffffffffffffffffffffffffffffffffffff1614156111bd576040517fd82599da00000000000000000000000000000000000000000000000000000000815260040160405180910390fd5b8060e00151426111cd919061297f565b6006546111da919061297f565b915050919050565b6111ea611916565b600073ffffffffffffffffffffffffffffffffffffffff168173ffffffffffffffffffffffffffffffffffffffff16141561125a576040517f08c379a000000000000000000000000000000000000000000000000000000000815260040161125190612a36565b60405180910390fd5b61126381611aa4565b50565b61126e6119f7565b600060086000858152602001908152602001600020905060008160020160029054906101000a900473ffffffffffffffffffffffffffffffffffffffff16905060008260030160009054906101000a900473ffffffffffffffffffffffffffffffffffffffff169050600073ffffffffffffffffffffffffffffffffffffffff168273ffffffffffffffffffffffffffffffffffffffff16141561134957856040517f44945fcc0000000000000000000000000000000000000000000000000000000081526004016113409190612355565b60405180910390fd5b600073ffffffffffffffffffffffffffffffffffffffff168173ffffffffffffffffffffffffffffffffffffffff1614156113b0576040517f39e523ba00000000000000000000000000000000000000000000000000000000815260040160405180910390fd5b8173ffffffffffffffffffffffffffffffffffffffff163373ffffffffffffffffffffffffffffffffffffffff1614156114a257600060048111156113f8576113f76124d7565b5b8360020160009054906101000a900460ff16600481111561141c5761141b6124d7565b5b146114605733866040517f33f29762000000000000000000000000000000000000000000000000000000008152600401611457929190612a56565b60405180910390fd5b61146f8360000154868661205b565b8360020160006101000a81548160ff02191690836004811115611495576114946124d7565b5b0217905550505050611598565b8073ffffffffffffffffffffffffffffffffffffffff163373ffffffffffffffffffffffffffffffffffffffff16141561159457600060048111156114ea576114e96124d7565b5b8360020160019054906101000a900460ff16600481111561150e5761150d6124d7565b5b146115525733866040517f33f29762000000000000000000000000000000000000000000000000000000008152600401611549929190612a56565b60405180910390fd5b6115618360010154868661205b565b8360020160016101000a81548160ff02191690836004811115611587576115866124d7565b5b0217905550505050611598565b5050505b505050565b806003548110156115e957806003546040517f1cc6243f0000000000000000000000000000000000000000000000000000000081526004016115e0929190612857565b60405180910390fd5b8160006115f53361064e565b90508181101561163e5780826040517f3592b9f4000000000000000000000000000000000000000000000000000000008152600401611635929190612857565b60405180910390fd5b6116466119f7565b60006008600061165660076121e5565b8152602001908152602001600020905061167060076121f3565b338160020160026101000a81548173ffffffffffffffffffffffffffffffffffffffff021916908373ffffffffffffffffffffffffffffffffffffffff1602179055508481600401819055508581600001819055506116cf3386612021565b3373ffffffffffffffffffffffffffffffffffffffff167f0bb8b3c1699d88c3b6dec18d63fc02f194b610b760b178b7292b481906b3ad668642604051611717929190612857565b60405180910390a2505050505050565b6060600082141561176f576040518060400160405280600181526020017f30000000000000000000000000000000000000000000000000000000000000008152509050611883565b600082905060005b600082146117a157808061178a90612a7f565b915050600a8261179a9190612af7565b9150611777565b60008167ffffffffffffffff8111156117bd576117bc612b28565b5b6040519080825280601f01601f1916602001820160405280156117ef5781602001600182028036833780820191505090505b5090505b6000851461187c57600182611808919061297f565b9150600a856118179190612b57565b60306118239190612801565b60f81b81838151811061183957611838612b88565b5b60200101907effffffffffffffffffffffffffffffffffffffffffffffffffffffffffffff1916908160001a905350600a856118759190612af7565b94506117f3565b8093505050505b919050565b60008110156118ce57806040517f482a52790000000000000000000000000000000000000000000000000000000081526004016118c59190612355565b60405180910390fd5b80600560008473ffffffffffffffffffffffffffffffffffffffff1673ffffffffffffffffffffffffffffffffffffffff168152602001908152602001600020819055505050565b61191e612209565b73ffffffffffffffffffffffffffffffffffffffff1661193c6106b7565b73ffffffffffffffffffffffffffffffffffffffff1614611992576040517f08c379a000000000000000000000000000000000000000000000000000000000815260040161198990612c03565b60405180910390fd5b565b61199c612211565b6000600260006101000a81548160ff0219169083151502179055507f5db9ee0a495bf2e6ff9c91a7834c1ba4fdd244a5e8aa4e537bd38aeae4b073aa6119e0612209565b6040516119ed91906124a3565b60405180910390a1565b6119ff610625565b15611a3f576040517f08c379a0000000000000000000000000000000000000000000000000000000008152600401611a3690612c6f565b60405180910390fd5b565b611a496119f7565b6001600260006101000a81548160ff0219169083151502179055507f62e78cea01bee320cd4e420270b5ea74000d11b0c9f74754ebdbfc544b05a258611a8d612209565b604051611a9a91906124a3565b60405180910390a1565b60008060009054906101000a900473ffffffffffffffffffffffffffffffffffffffff169050816000806101000a81548173ffffffffffffffffffffffffffffffffffffffff021916908373ffffffffffffffffffffffffffffffffffffffff1602179055508173ffffffffffffffffffffffffffffffffffffffff168173ffffffffffffffffffffffffffffffffffffffff167f8be0079c531659141344cd1fd0a4f28419497f9722a3daafe3b4186f6b6457e060405160405180910390a35050565b600060065482611b789190612801565b42119050919050565b836004811115611b9457611b936124d7565b5b856004811115611ba757611ba66124d7565b5b1415611c4957611bc383600283611bbe9190612af7565b611fa7565b611bd982600283611bd49190612af7565b611fa7565b8173ffffffffffffffffffffffffffffffffffffffff168373ffffffffffffffffffffffffffffffffffffffff167f0b9941cef1aa10b842b624e5965581bafc13a2025e1030cf301a233a74ce07ec87878542604051611c3c9493929190612c9e565b60405180910390a3611fa0565b60026004811115611c5d57611c5c6124d7565b5b856004811115611c7057611c6f6124d7565b5b148015611ca1575060016004811115611c8c57611c8b6124d7565b5b846004811115611c9f57611c9e6124d7565b5b145b80611d00575060016004811115611cbb57611cba6124d7565b5b856004811115611cce57611ccd6124d7565b5b148015611cff575060036004811115611cea57611ce96124d7565b5b846004811115611cfd57611cfc6124d7565b5b145b5b80611d5f575060036004811115611d1a57611d196124d7565b5b856004811115611d2d57611d2c6124d7565b5b148015611d5e575060026004811115611d4957611d486124d7565b5b846004811115611d5c57611d5b6124d7565b5b145b5b15611dde57611d6e8382611fa7565b8173ffffffffffffffffffffffffffffffffffffffff168373ffffffffffffffffffffffffffffffffffffffff167f1f0963b195b50f5d46ec758a39bbbcab4167b8077db3aeca518b991899f00bec87878542604051611dd19493929190612c9e565b60405180910390a3611fa0565b600480811115611df157611df06124d7565b5b856004811115611e0457611e036124d7565b5b1415611e8457611e148282611fa7565b8273ffffffffffffffffffffffffffffffffffffffff168273ffffffffffffffffffffffffffffffffffffffff167f1f0963b195b50f5d46ec758a39bbbcab4167b8077db3aeca518b991899f00bec86888542604051611e779493929190612c9e565b60405180910390a3611fa0565b600480811115611e9757611e966124d7565b5b846004811115611eaa57611ea96124d7565b5b1415611f2a57611eba8382611fa7565b8173ffffffffffffffffffffffffffffffffffffffff168373ffffffffffffffffffffffffffffffffffffffff167f1f0963b195b50f5d46ec758a39bbbcab4167b8077db3aeca518b991899f00bec87878542604051611f1d9493929190612c9e565b60405180910390a3611fa0565b611f348282611fa7565b8273ffffffffffffffffffffffffffffffffffffffff168273ffffffffffffffffffffffffffffffffffffffff167f1f0963b195b50f5d46ec758a39bbbcab4167b8077db3aeca518b991899f00bec86888542604051611f979493929190612c9e565b60405180910390a35b5050505050565b600080611fb38361225a565b91509150611fc130826104f1565b611fcb84836104f1565b8373ffffffffffffffffffffffffffffffffffffffff167f7ca7469714f3e1d8732b3a67b0599fba3be82b826137fcfa805c19afc2b20aeb8342604051612013929190612857565b60405180910390a250505050565b600061202c8361064e565b90506000828261203c919061297f565b90508060001061204b57600090505b6120558482611888565b50505050565b60008060028484604051602001612073929190612d22565b60405160208183030381529060405260405161208f9190612db5565b602060405180830381855afa1580156120ac573d6000803e3d6000fd5b5050506040513d601f19601f820116820180604052508101906120cf9190612de1565b905080851461210a576040517f0f9391d400000000000000000000000000000000000000000000000000000000815260040160405180910390fd5b6000848460008181106121205761211f612b88565b5b9050013560f81c60f81b9050603160f81b817effffffffffffffffffffffffffffffffffffffffffffffffffffffffffffff19161415612165576001925050506121de565b603260f81b817effffffffffffffffffffffffffffffffffffffffffffffffffffffffffffff1916141561219e576002925050506121de565b603360f81b817effffffffffffffffffffffffffffffffffffffffffffffffffffffffffffff191614156121d7576003925050506121de565b6004925050505b9392505050565b600081600001549050919050565b6001816000016000828254019250508190555050565b600033905090565b612219610625565b612258576040517f08c379a000000000000000000000000000000000000000000000000000000000815260040161224f90612e5a565b60405180910390fd5b565b600080600060045460648561226f9190612af7565b61227991906128c5565b905060008185612289919061297f565b90508082935093505050915091565b6040518061012001604052806000801916815260200160008019168152602001600060048111156122cc576122cb6124d7565b5b8152602001600060048111156122e5576122e46124d7565b5b8152602001600073ffffffffffffffffffffffffffffffffffffffff168152602001600073ffffffffffffffffffffffffffffffffffffffff16815260200160008152602001600081526020016000151581525090565b6000819050919050565b61234f8161233c565b82525050565b600060208201905061236a6000830184612346565b92915050565b600080fd5b600080fd5b6123838161233c565b811461238e57600080fd5b50565b6000813590506123a08161237a565b92915050565b6000602082840312156123bc576123bb612370565b5b60006123ca84828501612391565b91505092915050565b60008115159050919050565b6123e8816123d3565b82525050565b600060208201905061240360008301846123df565b92915050565b600073ffffffffffffffffffffffffffffffffffffffff82169050919050565b600061243482612409565b9050919050565b61244481612429565b811461244f57600080fd5b50565b6000813590506124618161243b565b92915050565b60006020828403121561247d5761247c612370565b5b600061248b84828501612452565b91505092915050565b61249d81612429565b82525050565b60006020820190506124b86000830184612494565b92915050565b6000819050919050565b6124d1816124be565b82525050565b7f4e487b7100000000000000000000000000000000000000000000000000000000600052602160045260246000fd5b60058110612517576125166124d7565b5b50565b600081905061252882612506565b919050565b60006125388261251a565b9050919050565b6125488161252d565b82525050565b61255781612429565b82525050565b6125668161233c565b82525050565b612575816123d3565b82525050565b6101208201600082015161259260008501826124c8565b5060208201516125a560208501826124c8565b5060408201516125b8604085018261253f565b5060608201516125cb606085018261253f565b5060808201516125de608085018261254e565b5060a08201516125f160a085018261254e565b5060c082015161260460c085018261255d565b5060e082015161261760e085018261255d565b5061010082015161262c61010085018261256c565b50505050565b600061012082019050612648600083018461257b565b92915050565b612657816124be565b811461266257600080fd5b50565b6000813590506126748161264e565b92915050565b60008060006060848603121561269357612692612370565b5b60006126a186828701612391565b93505060206126b286828701612665565b92505060406126c386828701612391565b9150509250925092565b600080fd5b600080fd5b600080fd5b60008083601f8401126126f2576126f16126cd565b5b8235905067ffffffffffffffff81111561270f5761270e6126d2565b5b60208301915083600182028301111561272b5761272a6126d7565b5b9250929050565b60008060006040848603121561274b5761274a612370565b5b600061275986828701612391565b935050602084013567ffffffffffffffff81111561277a57612779612375565b5b612786868287016126dc565b92509250509250925092565b600080604083850312156127a9576127a8612370565b5b60006127b785828601612665565b92505060206127c885828601612391565b9150509250929050565b7f4e487b7100000000000000000000000000000000000000000000000000000000600052601160045260246000fd5b600061280c8261233c565b91506128178361233c565b9250827fffffffffffffffffffffffffffffffffffffffffffffffffffffffffffffffff0382111561284c5761284b6127d2565b5b828201905092915050565b600060408201905061286c6000830185612346565b6128796020830184612346565b9392505050565b600060808201905061289560008301876123df565b6128a260208301866123df565b6128af60408301856123df565b6128bc60608301846123df565b95945050505050565b60006128d08261233c565b91506128db8361233c565b9250817fffffffffffffffffffffffffffffffffffffffffffffffffffffffffffffffff0483118215151615612914576129136127d2565b5b828202905092915050565b600060408201905061293460008301856123df565b61294160208301846123df565b9392505050565b600060608201905061295d6000830186612346565b61296a6020830185612346565b6129776040830184612346565b949350505050565b600061298a8261233c565b91506129958361233c565b9250828210156129a8576129a76127d2565b5b828203905092915050565b600082825260208201905092915050565b7f4f776e61626c653a206e6577206f776e657220697320746865207a65726f206160008201527f6464726573730000000000000000000000000000000000000000000000000000602082015250565b6000612a206026836129b3565b9150612a2b826129c4565b604082019050919050565b60006020820190508181036000830152612a4f81612a13565b9050919050565b6000604082019050612a6b6000830185612494565b612a786020830184612346565b9392505050565b6000612a8a8261233c565b91507fffffffffffffffffffffffffffffffffffffffffffffffffffffffffffffffff821415612abd57612abc6127d2565b5b600182019050919050565b7f4e487b7100000000000000000000000000000000000000000000000000000000600052601260045260246000fd5b6000612b028261233c565b9150612b0d8361233c565b925082612b1d57612b1c612ac8565b5b828204905092915050565b7f4e487b7100000000000000000000000000000000000000000000000000000000600052604160045260246000fd5b6000612b628261233c565b9150612b6d8361233c565b925082612b7d57612b7c612ac8565b5b828206905092915050565b7f4e487b7100000000000000000000000000000000000000000000000000000000600052603260045260246000fd5b7f4f776e61626c653a2063616c6c6572206973206e6f7420746865206f776e6572600082015250565b6000612bed6020836129b3565b9150612bf882612bb7565b602082019050919050565b60006020820190508181036000830152612c1c81612be0565b9050919050565b7f5061757361626c653a2070617573656400000000000000000000000000000000600082015250565b6000612c596010836129b3565b9150612c6482612c23565b602082019050919050565b60006020820190508181036000830152612c8881612c4c565b9050919050565b612c988161252d565b82525050565b6000608082019050612cb36000830187612c8f565b612cc06020830186612c8f565b612ccd6040830185612346565b612cda6060830184612346565b95945050505050565b600081905092915050565b82818337600083830152505050565b6000612d098385612ce3565b9350612d16838584612cee565b82840190509392505050565b6000612d2f828486612cfd565b91508190509392505050565b600081519050919050565b600081905092915050565b60005b83811015612d6f578082015181840152602081019050612d54565b83811115612d7e576000848401525b50505050565b6000612d8f82612d3b565b612d998185612d46565b9350612da9818560208601612d51565b80840191505092915050565b6000612dc18284612d84565b915081905092915050565b600081519050612ddb8161264e565b92915050565b600060208284031215612df757612df6612370565b5b6000612e0584828501612dcc565b91505092915050565b7f5061757361626c653a206e6f7420706175736564000000000000000000000000600082015250565b6000612e446014836129b3565b9150612e4f82612e0e565b602082019050919050565b60006020820190508181036000830152612e7381612e37565b905091905056fea2646970667358221220a64ed4545777df9f2246ac0f253393274862be34780113539c691fdf2424b43164736f6c634300080c00332867616d655f696420494e544547455220554e495155452c20637265617465645f61745f74696d657374616d7020494e54454745522c2067616d655f656e7472795f66656520494e54454745522c20706c617965725f3120544558542c20706c617965725f3220544558542c2077696e6e657220544558542c20706c617965725f315f6d6f766520494e54454745522c20706c617965725f325f6d6f766520494e544547455220293b",
  "devdoc": {
    "author": "DOPE DAO",
    "kind": "dev",
    "methods": {
      "constructor": {
        "details": "Find the list of tableland registries here https://docs.tableland.xyz/limits-and-deployed-contracts#ae3cfc1cfd2941bfa401580aa1e05c5e",
        "params": {
          "tablelandRegistry": "Address of the \"tableland registry\" on the chain this will be deployed on"
        }
      },
      "getGame(uint256)": {
        "returns": {
          "_0": "Game struct"
        }
      },
      "getGameEntryFee(uint256)": {
        "returns": {
          "_0": "Entry fee for a game id. 1/2 the \"pot\""
        }
      },
      "joinGame(uint256,bytes32,uint256)": {
        "params": {
          "encChoice": "sha256 hashed move and password",
          "entryFee": "The amount of entry fee required for this game.",
          "gameId": "ID of game stored in local storage."
        }
      },
      "owner()": {
        "details": "Returns the address of the current owner."
      },
      "paused()": {
        "details": "Returns true if the contract is paused, and false otherwise."
      },
      "renounceOwnership()": {
        "details": "Leaves the contract without owner. It will not be possible to call `onlyOwner` functions anymore. Can only be called by the current owner. NOTE: Renouncing ownership will leave the contract without an owner, thereby removing any functionality that is only available to the owner."
      },
      "resolveGame(uint256)": {
        "details": "Game is not resolvable if timer is still running and both players      have not revealed their move."
      },
      "startGame(bytes32,uint256)": {
        "params": {
          "encChoice": "sha256 hashed move and password",
          "entryFee": "The amount of entry fee required for this game."
        }
      },
      "transferOwnership(address)": {
        "details": "Transfers ownership of the contract to a new account (`newOwner`). Can only be called by the current owner."
      }
    },
    "title": "PAPER, ROCK, SCISSORS",
    "version": 1
  },
  "userdoc": {
    "kind": "user",
    "methods": {
      "constructor": {
        "notice": "Create tableland schema for our leaderboard."
      },
      "getGame(uint256)": {
        "notice": "Returns a single game for Player 1"
      },
      "getTimeLeft(uint256)": {
        "notice": "Return time left after Player 2 has revealed their move."
      },
      "joinGame(uint256,bytes32,uint256)": {
        "notice": "Allows p2 to join an existing game by gameId Requires player to commit their hashed move and password to join. Will fail if player does not have high enough balance on contract."
      },
      "pauseGame()": {
        "notice": "Pause game in case of suspicious activity"
      },
      "revealTimeout()": {
        "notice": "Both players have 12 hours to reveal their move. If one of them fails to do so the other can take the pot."
      },
      "startGame(bytes32,uint256)": {
        "notice": "Whoever calls this makes a new game and becomes \"p1\" Requires a sha256 encoded move and password to be stored as A player can make multiple games at a time."
      },
      "unpauseGame()": {
        "notice": "Unpause game"
      }
    },
    "notice": "A competitive, token-based, on-chain game of skill that persists results to         a public leaderboard stored in tableland.",
    "version": 1
  },
  "storageLayout": {
    "storage": [
      {
        "astId": 7,
        "contract": "src/PaperRockScissors.sol:PaperRockScissors",
        "label": "_owner",
        "offset": 0,
        "slot": "0",
        "type": "t_address"
      },
      {
        "astId": 231,
        "contract": "src/PaperRockScissors.sol:PaperRockScissors",
        "label": "_status",
        "offset": 0,
        "slot": "1",
        "type": "t_uint256"
      },
      {
        "astId": 130,
        "contract": "src/PaperRockScissors.sol:PaperRockScissors",
        "label": "_paused",
        "offset": 0,
        "slot": "2",
        "type": "t_bool"
      },
      {
        "astId": 2125,
        "contract": "src/PaperRockScissors.sol:PaperRockScissors",
        "label": "minEntryFee",
        "offset": 0,
        "slot": "3",
        "type": "t_uint256"
      },
      {
        "astId": 2128,
        "contract": "src/PaperRockScissors.sol:PaperRockScissors",
        "label": "taxPercent",
        "offset": 0,
        "slot": "4",
        "type": "t_uint256"
      },
      {
        "astId": 2132,
        "contract": "src/PaperRockScissors.sol:PaperRockScissors",
        "label": "_balances",
        "offset": 0,
        "slot": "5",
        "type": "t_mapping(t_address,t_uint256)"
      },
      {
        "astId": 1140,
        "contract": "src/PaperRockScissors.sol:PaperRockScissors",
        "label": "revealTimeout",
        "offset": 0,
        "slot": "6",
        "type": "t_uint256"
      },
      {
        "astId": 1147,
        "contract": "src/PaperRockScissors.sol:PaperRockScissors",
        "label": "_games",
        "offset": 0,
        "slot": "7",
        "type": "t_struct(Counter)583_storage"
      },
      {
        "astId": 1152,
        "contract": "src/PaperRockScissors.sol:PaperRockScissors",
        "label": "Games",
        "offset": 0,
        "slot": "8",
        "type": "t_mapping(t_uint256,t_struct(Game)1136_storage)"
      },
      {
        "astId": 1155,
        "contract": "src/PaperRockScissors.sol:PaperRockScissors",
        "label": "_tableland",
        "offset": 0,
        "slot": "9",
        "type": "t_contract(ITablelandTables)1018"
      },
      {
        "astId": 1157,
        "contract": "src/PaperRockScissors.sol:PaperRockScissors",
        "label": "_gameTableId",
        "offset": 0,
        "slot": "10",
        "type": "t_uint256"
      },
      {
        "astId": 1159,
        "contract": "src/PaperRockScissors.sol:PaperRockScissors",
        "label": "_gameTable",
        "offset": 0,
        "slot": "11",
        "type": "t_string_storage"
      },
      {
        "astId": 1162,
        "contract": "src/PaperRockScissors.sol:PaperRockScissors",
        "label": "_tablePrefix",
        "offset": 0,
        "slot": "12",
        "type": "t_string_storage"
      }
    ],
    "types": {
      "t_address": {
        "encoding": "inplace",
        "label": "address",
        "numberOfBytes": "20"
      },
      "t_bool": {
        "encoding": "inplace",
        "label": "bool",
        "numberOfBytes": "1"
      },
      "t_bytes32": {
        "encoding": "inplace",
        "label": "bytes32",
        "numberOfBytes": "32"
      },
      "t_contract(ITablelandTables)1018": {
        "encoding": "inplace",
        "label": "contract ITablelandTables",
        "numberOfBytes": "20"
      },
      "t_enum(Choices)1115": {
        "encoding": "inplace",
        "label": "enum PaperRockScissors.Choices",
        "numberOfBytes": "1"
      },
      "t_mapping(t_address,t_uint256)": {
        "encoding": "mapping",
        "key": "t_address",
        "label": "mapping(address => uint256)",
        "numberOfBytes": "32",
        "value": "t_uint256"
      },
      "t_mapping(t_uint256,t_struct(Game)1136_storage)": {
        "encoding": "mapping",
        "key": "t_uint256",
        "label": "mapping(uint256 => struct PaperRockScissors.Game)",
        "numberOfBytes": "32",
        "value": "t_struct(Game)1136_storage"
      },
      "t_string_storage": {
        "encoding": "bytes",
        "label": "string",
        "numberOfBytes": "32"
      },
      "t_struct(Counter)583_storage": {
        "encoding": "inplace",
        "label": "struct Counters.Counter",
        "members": [
          {
            "astId": 582,
            "contract": "src/PaperRockScissors.sol:PaperRockScissors",
            "label": "_value",
            "offset": 0,
            "slot": "0",
            "type": "t_uint256"
          }
        ],
        "numberOfBytes": "32"
      },
      "t_struct(Game)1136_storage": {
        "encoding": "inplace",
        "label": "struct PaperRockScissors.Game",
        "members": [
          {
            "astId": 1117,
            "contract": "src/PaperRockScissors.sol:PaperRockScissors",
            "label": "p1SaltedChoice",
            "offset": 0,
            "slot": "0",
            "type": "t_bytes32"
          },
          {
            "astId": 1119,
            "contract": "src/PaperRockScissors.sol:PaperRockScissors",
            "label": "encChoice",
            "offset": 0,
            "slot": "1",
            "type": "t_bytes32"
          },
          {
            "astId": 1122,
            "contract": "src/PaperRockScissors.sol:PaperRockScissors",
            "label": "p1ClearChoice",
            "offset": 0,
            "slot": "2",
            "type": "t_enum(Choices)1115"
          },
          {
            "astId": 1125,
            "contract": "src/PaperRockScissors.sol:PaperRockScissors",
            "label": "p2ClearChoice",
            "offset": 1,
            "slot": "2",
            "type": "t_enum(Choices)1115"
          },
          {
            "astId": 1127,
            "contract": "src/PaperRockScissors.sol:PaperRockScissors",
            "label": "p1",
            "offset": 2,
            "slot": "2",
            "type": "t_address"
          },
          {
            "astId": 1129,
            "contract": "src/PaperRockScissors.sol:PaperRockScissors",
            "label": "p2",
            "offset": 0,
            "slot": "3",
            "type": "t_address"
          },
          {
            "astId": 1131,
            "contract": "src/PaperRockScissors.sol:PaperRockScissors",
            "label": "entryFee",
            "offset": 0,
            "slot": "4",
            "type": "t_uint256"
          },
          {
            "astId": 1133,
            "contract": "src/PaperRockScissors.sol:PaperRockScissors",
            "label": "timerStart",
            "offset": 0,
            "slot": "5",
            "type": "t_uint256"
          },
          {
            "astId": 1135,
            "contract": "src/PaperRockScissors.sol:PaperRockScissors",
            "label": "resolved",
            "offset": 0,
            "slot": "6",
            "type": "t_bool"
          }
        ],
        "numberOfBytes": "224"
      },
      "t_uint256": {
        "encoding": "inplace",
        "label": "uint256",
        "numberOfBytes": "32"
      }
    }
  }
}