{
  "address": "0x82dE74874ff809EA031E2E65Ed1671b6158Df479",
  "abi": [
    {
      "inputs": [
        {
          "internalType": "address",
          "name": "tablelandRegistry",
          "type": "address"
        }
      ],
      "stateMutability": "nonpayable",
      "type": "constructor"
    },
    {
      "inputs": [
        {
          "internalType": "address",
          "name": "player",
          "type": "address"
        },
        {
          "internalType": "uint256",
          "name": "gameId",
          "type": "uint256"
        }
      ],
      "name": "AlreadyRevealed",
      "type": "error"
    },
    {
      "inputs": [
        {
          "internalType": "uint256",
          "name": "available",
          "type": "uint256"
        },
        {
          "internalType": "uint256",
          "name": "required",
          "type": "uint256"
        }
      ],
      "name": "AmountTooLow",
      "type": "error"
    },
    {
      "inputs": [
        {
          "internalType": "bool",
          "name": "alreadHasP2",
          "type": "bool"
        },
        {
          "internalType": "bool",
          "name": "tryingToJoinOwnGame",
          "type": "bool"
        }
      ],
      "name": "CannotJoinGame",
      "type": "error"
    },
    {
      "inputs": [
        {
          "internalType": "uint256",
          "name": "gameId",
          "type": "uint256"
        }
      ],
      "name": "IndexOutOfBounds",
      "type": "error"
    },
    {
      "inputs": [
        {
          "internalType": "uint256",
          "name": "balance",
          "type": "uint256"
        }
      ],
      "name": "InvalidBalance",
      "type": "error"
    },
    {
      "inputs": [],
      "name": "InvalidPassword",
      "type": "error"
    },
    {
      "inputs": [],
      "name": "NoActiveTimer",
      "type": "error"
    },
    {
      "inputs": [],
      "name": "NoSecondPlayer",
      "type": "error"
    },
    {
      "inputs": [
        {
          "internalType": "uint256",
          "name": "available",
          "type": "uint256"
        },
        {
          "internalType": "uint256",
          "name": "requested",
          "type": "uint256"
        }
      ],
      "name": "NotEnoughMoneyInContract",
      "type": "error"
    },
    {
      "inputs": [
        {
          "internalType": "bool",
          "name": "timerStillRunning",
          "type": "bool"
        },
        {
          "internalType": "bool",
          "name": "p1Revealed",
          "type": "bool"
        },
        {
          "internalType": "bool",
          "name": "p2Revealed",
          "type": "bool"
        },
        {
          "internalType": "bool",
          "name": "alreadyResolved",
          "type": "bool"
        }
      ],
      "name": "NotResolvable",
      "type": "error"
    },
    {
      "inputs": [
        {
          "internalType": "uint256",
          "name": "available",
          "type": "uint256"
        },
        {
          "internalType": "uint256",
          "name": "required",
          "type": "uint256"
        }
      ],
      "name": "PlayerBalanceNotEnough",
      "type": "error"
    },
    {
      "inputs": [],
      "name": "TimerFinished",
      "type": "error"
    },
    {
      "anonymous": false,
      "inputs": [
        {
          "indexed": true,
          "internalType": "address",
          "name": "",
          "type": "address"
        },
        {
          "indexed": false,
          "internalType": "uint256",
          "name": "",
          "type": "uint256"
        },
        {
          "indexed": false,
          "internalType": "uint256",
          "name": "",
          "type": "uint256"
        }
      ],
      "name": "CreatedGame",
      "type": "event"
    },
    {
      "anonymous": false,
      "inputs": [
        {
          "indexed": true,
          "internalType": "address",
          "name": "",
          "type": "address"
        },
        {
          "indexed": false,
          "internalType": "enum PRS.Choices",
          "name": "",
          "type": "uint8"
        },
        {
          "indexed": true,
          "internalType": "address",
          "name": "",
          "type": "address"
        },
        {
          "indexed": false,
          "internalType": "enum PRS.Choices",
          "name": "",
          "type": "uint8"
        },
        {
          "indexed": false,
          "internalType": "uint256",
          "name": "",
          "type": "uint256"
        },
        {
          "indexed": false,
          "internalType": "uint256",
          "name": "",
          "type": "uint256"
        }
      ],
      "name": "GameDraw",
      "type": "event"
    },
    {
      "anonymous": false,
      "inputs": [
        {
          "indexed": true,
          "internalType": "address",
          "name": "",
          "type": "address"
        },
        {
          "indexed": true,
          "internalType": "address",
          "name": "",
          "type": "address"
        },
        {
          "indexed": false,
          "internalType": "uint256",
          "name": "",
          "type": "uint256"
        },
        {
          "indexed": false,
          "internalType": "uint256",
          "name": "",
          "type": "uint256"
        },
        {
          "indexed": false,
          "internalType": "uint256",
          "name": "",
          "type": "uint256"
        }
      ],
      "name": "JoinedGameOf",
      "type": "event"
    },
    {
      "anonymous": false,
      "inputs": [
        {
          "indexed": true,
          "internalType": "address",
          "name": "previousOwner",
          "type": "address"
        },
        {
          "indexed": true,
          "internalType": "address",
          "name": "newOwner",
          "type": "address"
        }
      ],
      "name": "OwnershipTransferred",
      "type": "event"
    },
    {
      "anonymous": false,
      "inputs": [
        {
          "indexed": true,
          "internalType": "address",
          "name": "",
          "type": "address"
        },
        {
          "indexed": false,
          "internalType": "uint256",
          "name": "",
          "type": "uint256"
        },
        {
          "indexed": false,
          "internalType": "uint256",
          "name": "",
          "type": "uint256"
        }
      ],
      "name": "PaidOut",
      "type": "event"
    },
    {
      "anonymous": false,
      "inputs": [
        {
          "indexed": false,
          "internalType": "address",
          "name": "account",
          "type": "address"
        }
      ],
      "name": "Paused",
      "type": "event"
    },
    {
      "anonymous": false,
      "inputs": [
        {
          "indexed": false,
          "internalType": "address",
          "name": "account",
          "type": "address"
        }
      ],
      "name": "Unpaused",
      "type": "event"
    },
    {
      "anonymous": false,
      "inputs": [
        {
          "indexed": true,
          "internalType": "address",
          "name": "",
          "type": "address"
        },
        {
          "indexed": false,
          "internalType": "enum PRS.Choices",
          "name": "",
          "type": "uint8"
        },
        {
          "indexed": true,
          "internalType": "address",
          "name": "",
          "type": "address"
        },
        {
          "indexed": false,
          "internalType": "enum PRS.Choices",
          "name": "",
          "type": "uint8"
        },
        {
          "indexed": false,
          "internalType": "uint256",
          "name": "",
          "type": "uint256"
        },
        {
          "indexed": false,
          "internalType": "uint256",
          "name": "",
          "type": "uint256"
        }
      ],
      "name": "WonGameAgainst",
      "type": "event"
    },
    {
      "inputs": [
        {
          "internalType": "address",
          "name": "account",
          "type": "address"
        }
      ],
      "name": "balanceOf",
      "outputs": [
        {
          "internalType": "uint256",
          "name": "",
          "type": "uint256"
        }
      ],
      "stateMutability": "view",
      "type": "function"
    },
    {
      "inputs": [],
      "name": "getBalance",
      "outputs": [
        {
          "internalType": "uint256",
          "name": "",
          "type": "uint256"
        }
      ],
      "stateMutability": "view",
      "type": "function"
    },
    {
      "inputs": [
        {
          "internalType": "uint256",
          "name": "gameId",
          "type": "uint256"
        }
      ],
      "name": "getGame",
      "outputs": [
        {
          "components": [
            {
              "internalType": "bytes32",
              "name": "p1SaltedChoice",
              "type": "bytes32"
            },
            {
              "internalType": "bytes32",
              "name": "encChoice",
              "type": "bytes32"
            },
            {
              "internalType": "enum PRS.Choices",
              "name": "p1ClearChoice",
              "type": "uint8"
            },
            {
              "internalType": "enum PRS.Choices",
              "name": "p2ClearChoice",
              "type": "uint8"
            },
            {
              "internalType": "address",
              "name": "p1",
              "type": "address"
            },
            {
              "internalType": "address",
              "name": "p2",
              "type": "address"
            },
            {
              "internalType": "uint256",
              "name": "entryFee",
              "type": "uint256"
            },
            {
              "internalType": "uint256",
              "name": "timerStart",
              "type": "uint256"
            },
            {
              "internalType": "bool",
              "name": "resolved",
              "type": "bool"
            }
          ],
          "internalType": "struct PRS.Game",
          "name": "",
          "type": "tuple"
        }
      ],
      "stateMutability": "view",
      "type": "function"
    },
    {
      "inputs": [
        {
          "internalType": "uint256",
          "name": "gameId",
          "type": "uint256"
        }
      ],
      "name": "getGameEntryFee",
      "outputs": [
        {
          "internalType": "uint256",
          "name": "",
          "type": "uint256"
        }
      ],
      "stateMutability": "view",
      "type": "function"
    },
    {
      "inputs": [
        {
          "internalType": "uint256",
          "name": "gameId",
          "type": "uint256"
        }
      ],
      "name": "getTimeLeft",
      "outputs": [
        {
          "internalType": "uint256",
          "name": "",
          "type": "uint256"
        }
      ],
      "stateMutability": "view",
      "type": "function"
    },
    {
      "inputs": [
        {
          "internalType": "uint256",
          "name": "gameId",
          "type": "uint256"
        },
        {
          "internalType": "bytes32",
          "name": "encChoice",
          "type": "bytes32"
        },
        {
          "internalType": "uint256",
          "name": "entryFee",
          "type": "uint256"
        }
      ],
      "name": "joinGame",
      "outputs": [],
      "stateMutability": "nonpayable",
      "type": "function"
    },
    {
      "inputs": [],
      "name": "minEntryFee",
      "outputs": [
        {
          "internalType": "uint256",
          "name": "",
          "type": "uint256"
        }
      ],
      "stateMutability": "view",
      "type": "function"
    },
    {
      "inputs": [],
      "name": "owner",
      "outputs": [
        {
          "internalType": "address",
          "name": "",
          "type": "address"
        }
      ],
      "stateMutability": "view",
      "type": "function"
    },
    {
      "inputs": [],
      "name": "pauseGame",
      "outputs": [],
      "stateMutability": "nonpayable",
      "type": "function"
    },
    {
      "inputs": [],
      "name": "paused",
      "outputs": [
        {
          "internalType": "bool",
          "name": "",
          "type": "bool"
        }
      ],
      "stateMutability": "view",
      "type": "function"
    },
    {
      "inputs": [],
      "name": "renounceOwnership",
      "outputs": [],
      "stateMutability": "nonpayable",
      "type": "function"
    },
    {
      "inputs": [
        {
          "internalType": "uint256",
          "name": "gameId",
          "type": "uint256"
        }
      ],
      "name": "resolveGame",
      "outputs": [],
      "stateMutability": "nonpayable",
      "type": "function"
    },
    {
      "inputs": [
        {
          "internalType": "uint256",
          "name": "gameId",
          "type": "uint256"
        },
        {
          "internalType": "string",
          "name": "movePw",
          "type": "string"
        }
      ],
      "name": "revealChoice",
      "outputs": [],
      "stateMutability": "nonpayable",
      "type": "function"
    },
    {
      "inputs": [],
      "name": "revealTimeout",
      "outputs": [
        {
          "internalType": "uint256",
          "name": "",
          "type": "uint256"
        }
      ],
      "stateMutability": "view",
      "type": "function"
    },
    {
      "inputs": [
        {
          "internalType": "uint256",
          "name": "fee",
          "type": "uint256"
        }
      ],
      "name": "setMinEntryFee",
      "outputs": [],
      "stateMutability": "nonpayable",
      "type": "function"
    },
    {
      "inputs": [
        {
          "internalType": "uint256",
          "name": "newTimeout",
          "type": "uint256"
        }
      ],
      "name": "setRevealTimeout",
      "outputs": [],
      "stateMutability": "nonpayable",
      "type": "function"
    },
    {
      "inputs": [
        {
          "internalType": "uint256",
          "name": "pct",
          "type": "uint256"
        }
      ],
      "name": "setTaxPercent",
      "outputs": [],
      "stateMutability": "nonpayable",
      "type": "function"
    },
    {
      "inputs": [
        {
          "internalType": "bytes32",
          "name": "encChoice",
          "type": "bytes32"
        },
        {
          "internalType": "uint256",
          "name": "entryFee",
          "type": "uint256"
        }
      ],
      "name": "startGame",
      "outputs": [],
      "stateMutability": "nonpayable",
      "type": "function"
    },
    {
      "inputs": [],
      "name": "taxPercent",
      "outputs": [
        {
          "internalType": "uint256",
          "name": "",
          "type": "uint256"
        }
      ],
      "stateMutability": "view",
      "type": "function"
    },
    {
      "inputs": [
        {
          "internalType": "address",
          "name": "newOwner",
          "type": "address"
        }
      ],
      "name": "transferOwnership",
      "outputs": [],
      "stateMutability": "nonpayable",
      "type": "function"
    },
    {
      "inputs": [],
      "name": "unpauseGame",
      "outputs": [],
      "stateMutability": "nonpayable",
      "type": "function"
    },
    {
      "inputs": [],
      "name": "withdraw",
      "outputs": [],
      "stateMutability": "payable",
      "type": "function"
    },
    {
      "inputs": [],
      "name": "withdrawTax",
      "outputs": [],
      "stateMutability": "payable",
      "type": "function"
    },
    {
      "stateMutability": "payable",
      "type": "receive"
    }
  ],
  "transactionHash": "0x93e02d4c319e68c4b5e1fb28e1a565c1efc8803d5c206407dcfd4a8dfc599492",
  "args": [
    "0xDA8EA22d092307874f30A1F277D1388dca0BA97a"
  ],
  "numDeployments": 1,
  "solcInputHash": "c950d09e85e7a2ead419f54a24083885",
  "bytecode": "0x6080604052662386f26fc10000600355600560045561a8c06006556040518060400160405280600381526020017f7072730000000000000000000000000000000000000000000000000000000000815250600c908051906020019062000067929190620001c4565b503480156200007557600080fd5b506040516200302b3803806200302b83398181016040528101906200009b9190620002de565b620000bb620000af620000f560201b60201c565b620000fd60201b60201c565b600180819055506000600260006101000a81548160ff021916908315150217905550620000ee81620001c160201b60201c565b5062000375565b600033905090565b60008060009054906101000a900473ffffffffffffffffffffffffffffffffffffffff169050816000806101000a81548173ffffffffffffffffffffffffffffffffffffffff021916908373ffffffffffffffffffffffffffffffffffffffff1602179055508173ffffffffffffffffffffffffffffffffffffffff168173ffffffffffffffffffffffffffffffffffffffff167f8be0079c531659141344cd1fd0a4f28419497f9722a3daafe3b4186f6b6457e060405160405180910390a35050565b50565b828054620001d2906200033f565b90600052602060002090601f016020900481019282620001f6576000855562000242565b82601f106200021157805160ff191683800117855562000242565b8280016001018555821562000242579182015b828111156200024157825182559160200191906001019062000224565b5b50905062000251919062000255565b5090565b5b808211156200027057600081600090555060010162000256565b5090565b600080fd5b600073ffffffffffffffffffffffffffffffffffffffff82169050919050565b6000620002a68262000279565b9050919050565b620002b88162000299565b8114620002c457600080fd5b50565b600081519050620002d881620002ad565b92915050565b600060208284031215620002f757620002f662000274565b5b60006200030784828501620002c7565b91505092915050565b7f4e487b7100000000000000000000000000000000000000000000000000000000600052602260045260246000fd5b600060028204905060018216806200035857607f821691505b602082108114156200036f576200036e62000310565b5b50919050565b612ca680620003856000396000f3fe6080604052600436106101445760003560e01c80637541f41c116100b6578063dc8e9e001161006f578063dc8e9e0014610406578063dfa20f0a1461042f578063e8c5876314610439578063f2fde38b14610476578063f712545b1461049f578063fb8365e0146104c857610155565b80637541f41c146102e257806376e5b8621461030d5780638da5cb5b14610338578063a2f77bcc14610363578063b7a5a5b6146103a0578063dbbf70eb146103c957610155565b8063499831f211610108578063499831f2146101fa5780635b027c33146102115780635c975abb1461023a578063611783861461026557806370a082311461028e578063715018a6146102cb57610155565b806312065fe01461015a578063305243d91461018557806338b640851461019c5780633ccfd60b146101c55780634376cb34146101cf57610155565b366101555761015333346104f1565b005b600080fd5b34801561016657600080fd5b5061016f61051e565b60405161017c91906121f4565b60405180910390f35b34801561019157600080fd5b5061019a610526565b005b3480156101a857600080fd5b506101c360048036038101906101be9190612245565b610538565b005b6101cd61054a565b005b3480156101db57600080fd5b506101e46105fb565b6040516101f191906121f4565b60405180910390f35b34801561020657600080fd5b5061020f610601565b005b34801561021d57600080fd5b5061023860048036038101906102339190612245565b610613565b005b34801561024657600080fd5b5061024f610625565b60405161025c919061228d565b60405180910390f35b34801561027157600080fd5b5061028c60048036038101906102879190612245565b61063c565b005b34801561029a57600080fd5b506102b560048036038101906102b09190612306565b61064e565b6040516102c291906121f4565b60405180910390f35b3480156102d757600080fd5b506102e0610697565b005b3480156102ee57600080fd5b506102f76106ab565b60405161030491906121f4565b60405180910390f35b34801561031957600080fd5b506103226106b1565b60405161032f91906121f4565b60405180910390f35b34801561034457600080fd5b5061034d6106b7565b60405161035a9190612342565b60405180910390f35b34801561036f57600080fd5b5061038a60048036038101906103859190612245565b6106e0565b60405161039791906124d1565b60405180910390f35b3480156103ac57600080fd5b506103c760048036038101906103c29190612245565b61090f565b005b3480156103d557600080fd5b506103f060048036038101906103eb9190612245565b610cf7565b6040516103fd91906121f4565b60405180910390f35b34801561041257600080fd5b5061042d60048036038101906104289190612519565b610d12565b005b61043761104f565b005b34801561044557600080fd5b50610460600480360381019061045b9190612245565b611100565b60405161046d91906121f4565b60405180910390f35b34801561048257600080fd5b5061049d60048036038101906104989190612306565b6111e2565b005b3480156104ab57600080fd5b506104c660048036038101906104c191906125d1565b611266565b005b3480156104d457600080fd5b506104ef60048036038101906104ea9190612631565b61159d565b005b60006104fc8361064e565b90506000828261050c91906126a0565b90506105188482611727565b50505050565b600047905090565b61052e6117b5565b610536611833565b565b6105406117b5565b8060068190555050565b610552611896565b600061055d3361064e565b9050804710156105a65747816040517fe1310fcf00000000000000000000000000000000000000000000000000000000815260040161059d9291906126f6565b60405180910390fd5b6105b1336000611727565b3373ffffffffffffffffffffffffffffffffffffffff166108fc829081150290604051600060405180830381858888f193505050501580156105f7573d6000803e3d6000fd5b5050565b60065481565b6106096117b5565b6106116118e0565b565b61061b6117b5565b8060038190555050565b6000600260009054906101000a900460ff16905090565b6106446117b5565b8060048190555050565b6000600560008373ffffffffffffffffffffffffffffffffffffffff1673ffffffffffffffffffffffffffffffffffffffff168152602001908152602001600020549050919050565b61069f6117b5565b6106a96000611943565b565b60045481565b60035481565b60008060009054906101000a900473ffffffffffffffffffffffffffffffffffffffff16905090565b6106e8612137565b6000600860008481526020019081526020016000209050600073ffffffffffffffffffffffffffffffffffffffff168160020160029054906101000a900473ffffffffffffffffffffffffffffffffffffffff1673ffffffffffffffffffffffffffffffffffffffff16141561079557826040517f44945fcc00000000000000000000000000000000000000000000000000000000815260040161078c91906121f4565b60405180910390fd5b806040518061012001604052908160008201548152602001600182015481526020016002820160009054906101000a900460ff1660048111156107db576107da612376565b5b60048111156107ed576107ec612376565b5b81526020016002820160019054906101000a900460ff16600481111561081657610815612376565b5b600481111561082857610827612376565b5b81526020016002820160029054906101000a900473ffffffffffffffffffffffffffffffffffffffff1673ffffffffffffffffffffffffffffffffffffffff1673ffffffffffffffffffffffffffffffffffffffff1681526020016003820160009054906101000a900473ffffffffffffffffffffffffffffffffffffffff1673ffffffffffffffffffffffffffffffffffffffff1673ffffffffffffffffffffffffffffffffffffffff16815260200160048201548152602001600582015481526020016006820160009054906101000a900460ff161515151581525050915050919050565b610917611896565b6000600860008381526020019081526020016000209050600073ffffffffffffffffffffffffffffffffffffffff168160020160029054906101000a900473ffffffffffffffffffffffffffffffffffffffff1673ffffffffffffffffffffffffffffffffffffffff1614156109c457816040517f44945fcc0000000000000000000000000000000000000000000000000000000081526004016109bb91906121f4565b60405180910390fd5b600073ffffffffffffffffffffffffffffffffffffffff168160030160009054906101000a900473ffffffffffffffffffffffffffffffffffffffff1673ffffffffffffffffffffffffffffffffffffffff161415610a4f576040517f39e523ba00000000000000000000000000000000000000000000000000000000815260040160405180910390fd5b8060060160009054906101000a900460ff1615610aac57600080600060016040517f3f79bc1c000000000000000000000000000000000000000000000000000000008152600401610aa3949392919061271f565b60405180910390fd5b6000610abb8260050154611a07565b1590506000806004811115610ad357610ad2612376565b5b8360020160009054906101000a900460ff166004811115610af757610af6612376565b5b1490506000806004811115610b0f57610b0e612376565b5b8460020160019054906101000a900460ff166004811115610b3357610b32612376565b5b149050828015610b4857508080610b475750815b5b15610b915782828260006040517f3f79bc1c000000000000000000000000000000000000000000000000000000008152600401610b88949392919061271f565b60405180910390fd5b600060028560040154610ba49190612764565b905060018560060160006101000a81548160ff0219169083151502179055508315610c4a57610c408560020160009054906101000a900460ff168660020160019054906101000a900460ff168760020160029054906101000a900473ffffffffffffffffffffffffffffffffffffffff168860030160009054906101000a900473ffffffffffffffffffffffffffffffffffffffff1685611a20565b5050505050610cf4565b83158015610c56575082155b8015610c5f5750815b15610c9c57610c928560020160029054906101000a900473ffffffffffffffffffffffffffffffffffffffff1682611e46565b5050505050610cf4565b83158015610ca75750825b8015610cb1575081155b15610cee57610ce48560030160009054906101000a900473ffffffffffffffffffffffffffffffffffffffff1682611e46565b5050505050610cf4565b50505050505b50565b600080610d03836106e0565b90508060c00151915050919050565b806000610d1e3361064e565b905081811015610d675780826040517f3592b9f4000000000000000000000000000000000000000000000000000000008152600401610d5e9291906126f6565b60405180910390fd5b610d6f611896565b600060086000878152602001908152602001600020905060008160020160029054906101000a900473ffffffffffffffffffffffffffffffffffffffff169050600073ffffffffffffffffffffffffffffffffffffffff168173ffffffffffffffffffffffffffffffffffffffff161415610e2157866040517f44945fcc000000000000000000000000000000000000000000000000000000008152600401610e1891906121f4565b60405180910390fd5b3373ffffffffffffffffffffffffffffffffffffffff168173ffffffffffffffffffffffffffffffffffffffff161415610e9657600060016040517f7274f7b8000000000000000000000000000000000000000000000000000000008152600401610e8d9291906127be565b60405180910390fd5b600073ffffffffffffffffffffffffffffffffffffffff168260030160009054906101000a900473ffffffffffffffffffffffffffffffffffffffff1673ffffffffffffffffffffffffffffffffffffffff1614610f2f57600160006040517f7274f7b8000000000000000000000000000000000000000000000000000000008152600401610f269291906127be565b60405180910390fd5b8160040154851015610f7e578482600401546040517f1cc6243f000000000000000000000000000000000000000000000000000000008152600401610f759291906126f6565b60405180910390fd5b338260030160006101000a81548173ffffffffffffffffffffffffffffffffffffffff021916908373ffffffffffffffffffffffffffffffffffffffff160217905550858260010181905550428260050181905550610fdd3386611ec0565b8073ffffffffffffffffffffffffffffffffffffffff163373ffffffffffffffffffffffffffffffffffffffff167f70fc8cbbf6bf1c3929b063284d69be02695d9de0c6a918f74b2277d81ee28c4b89884260405161103e939291906127e7565b60405180910390a350505050505050565b6110576117b5565b60006110623061064e565b9050804710156110ab5747816040517fe1310fcf0000000000000000000000000000000000000000000000000000000081526004016110a29291906126f6565b60405180910390fd5b6110b6306000611727565b3373ffffffffffffffffffffffffffffffffffffffff166108fc829081150290604051600060405180830381858888f193505050501580156110fc573d6000803e3d6000fd5b5050565b60008061110c836106e0565b905061111b8160e00151611a07565b15611152576040517f7737a3c100000000000000000000000000000000000000000000000000000000815260040160405180910390fd5b600073ffffffffffffffffffffffffffffffffffffffff168160a0015173ffffffffffffffffffffffffffffffffffffffff1614156111bd576040517fd82599da00000000000000000000000000000000000000000000000000000000815260040160405180910390fd5b8060e00151426111cd919061281e565b6006546111da919061281e565b915050919050565b6111ea6117b5565b600073ffffffffffffffffffffffffffffffffffffffff168173ffffffffffffffffffffffffffffffffffffffff16141561125a576040517f08c379a0000000000000000000000000000000000000000000000000000000008152600401611251906128d5565b60405180910390fd5b61126381611943565b50565b61126e611896565b600060086000858152602001908152602001600020905060008160020160029054906101000a900473ffffffffffffffffffffffffffffffffffffffff16905060008260030160009054906101000a900473ffffffffffffffffffffffffffffffffffffffff169050600073ffffffffffffffffffffffffffffffffffffffff168273ffffffffffffffffffffffffffffffffffffffff16141561134957856040517f44945fcc00000000000000000000000000000000000000000000000000000000815260040161134091906121f4565b60405180910390fd5b600073ffffffffffffffffffffffffffffffffffffffff168173ffffffffffffffffffffffffffffffffffffffff1614156113b0576040517f39e523ba00000000000000000000000000000000000000000000000000000000815260040160405180910390fd5b8173ffffffffffffffffffffffffffffffffffffffff163373ffffffffffffffffffffffffffffffffffffffff1614156114a257600060048111156113f8576113f7612376565b5b8360020160009054906101000a900460ff16600481111561141c5761141b612376565b5b146114605733866040517f33f297620000000000000000000000000000000000000000000000000000000081526004016114579291906128f5565b60405180910390fd5b61146f83600001548686611efa565b8360020160006101000a81548160ff0219169083600481111561149557611494612376565b5b0217905550505050611598565b8073ffffffffffffffffffffffffffffffffffffffff163373ffffffffffffffffffffffffffffffffffffffff16141561159457600060048111156114ea576114e9612376565b5b8360020160019054906101000a900460ff16600481111561150e5761150d612376565b5b146115525733866040517f33f297620000000000000000000000000000000000000000000000000000000081526004016115499291906128f5565b60405180910390fd5b61156183600101548686611efa565b8360020160016101000a81548160ff0219169083600481111561158757611586612376565b5b0217905550505050611598565b5050505b505050565b806003548110156115e957806003546040517f1cc6243f0000000000000000000000000000000000000000000000000000000081526004016115e09291906126f6565b60405180910390fd5b8160006115f53361064e565b90508181101561163e5780826040517f3592b9f40000000000000000000000000000000000000000000000000000000081526004016116359291906126f6565b60405180910390fd5b611646611896565b6000600860006116566007612084565b815260200190815260200160002090506116706007612092565b338160020160026101000a81548173ffffffffffffffffffffffffffffffffffffffff021916908373ffffffffffffffffffffffffffffffffffffffff1602179055508481600401819055508581600001819055506116cf3386611ec0565b3373ffffffffffffffffffffffffffffffffffffffff167f0bb8b3c1699d88c3b6dec18d63fc02f194b610b760b178b7292b481906b3ad6686426040516117179291906126f6565b60405180910390a2505050505050565b600081101561176d57806040517f482a527900000000000000000000000000000000000000000000000000000000815260040161176491906121f4565b60405180910390fd5b80600560008473ffffffffffffffffffffffffffffffffffffffff1673ffffffffffffffffffffffffffffffffffffffff168152602001908152602001600020819055505050565b6117bd6120a8565b73ffffffffffffffffffffffffffffffffffffffff166117db6106b7565b73ffffffffffffffffffffffffffffffffffffffff1614611831576040517f08c379a00000000000000000000000000000000000000000000000000000000081526004016118289061296a565b60405180910390fd5b565b61183b6120b0565b6000600260006101000a81548160ff0219169083151502179055507f5db9ee0a495bf2e6ff9c91a7834c1ba4fdd244a5e8aa4e537bd38aeae4b073aa61187f6120a8565b60405161188c9190612342565b60405180910390a1565b61189e610625565b156118de576040517f08c379a00000000000000000000000000000000000000000000000000000000081526004016118d5906129d6565b60405180910390fd5b565b6118e8611896565b6001600260006101000a81548160ff0219169083151502179055507f62e78cea01bee320cd4e420270b5ea74000d11b0c9f74754ebdbfc544b05a25861192c6120a8565b6040516119399190612342565b60405180910390a1565b60008060009054906101000a900473ffffffffffffffffffffffffffffffffffffffff169050816000806101000a81548173ffffffffffffffffffffffffffffffffffffffff021916908373ffffffffffffffffffffffffffffffffffffffff1602179055508173ffffffffffffffffffffffffffffffffffffffff168173ffffffffffffffffffffffffffffffffffffffff167f8be0079c531659141344cd1fd0a4f28419497f9722a3daafe3b4186f6b6457e060405160405180910390a35050565b600060065482611a1791906126a0565b42119050919050565b836004811115611a3357611a32612376565b5b856004811115611a4657611a45612376565b5b1415611ae857611a6283600283611a5d9190612a25565b611e46565b611a7882600283611a739190612a25565b611e46565b8173ffffffffffffffffffffffffffffffffffffffff168373ffffffffffffffffffffffffffffffffffffffff167f0b9941cef1aa10b842b624e5965581bafc13a2025e1030cf301a233a74ce07ec87878542604051611adb9493929190612a65565b60405180910390a3611e3f565b60026004811115611afc57611afb612376565b5b856004811115611b0f57611b0e612376565b5b148015611b40575060016004811115611b2b57611b2a612376565b5b846004811115611b3e57611b3d612376565b5b145b80611b9f575060016004811115611b5a57611b59612376565b5b856004811115611b6d57611b6c612376565b5b148015611b9e575060036004811115611b8957611b88612376565b5b846004811115611b9c57611b9b612376565b5b145b5b80611bfe575060036004811115611bb957611bb8612376565b5b856004811115611bcc57611bcb612376565b5b148015611bfd575060026004811115611be857611be7612376565b5b846004811115611bfb57611bfa612376565b5b145b5b15611c7d57611c0d8382611e46565b8173ffffffffffffffffffffffffffffffffffffffff168373ffffffffffffffffffffffffffffffffffffffff167f1f0963b195b50f5d46ec758a39bbbcab4167b8077db3aeca518b991899f00bec87878542604051611c709493929190612a65565b60405180910390a3611e3f565b600480811115611c9057611c8f612376565b5b856004811115611ca357611ca2612376565b5b1415611d2357611cb38282611e46565b8273ffffffffffffffffffffffffffffffffffffffff168273ffffffffffffffffffffffffffffffffffffffff167f1f0963b195b50f5d46ec758a39bbbcab4167b8077db3aeca518b991899f00bec86888542604051611d169493929190612a65565b60405180910390a3611e3f565b600480811115611d3657611d35612376565b5b846004811115611d4957611d48612376565b5b1415611dc957611d598382611e46565b8173ffffffffffffffffffffffffffffffffffffffff168373ffffffffffffffffffffffffffffffffffffffff167f1f0963b195b50f5d46ec758a39bbbcab4167b8077db3aeca518b991899f00bec87878542604051611dbc9493929190612a65565b60405180910390a3611e3f565b611dd38282611e46565b8273ffffffffffffffffffffffffffffffffffffffff168273ffffffffffffffffffffffffffffffffffffffff167f1f0963b195b50f5d46ec758a39bbbcab4167b8077db3aeca518b991899f00bec86888542604051611e369493929190612a65565b60405180910390a35b5050505050565b600080611e52836120f9565b91509150611e6030826104f1565b611e6a84836104f1565b8373ffffffffffffffffffffffffffffffffffffffff167f7ca7469714f3e1d8732b3a67b0599fba3be82b826137fcfa805c19afc2b20aeb8342604051611eb29291906126f6565b60405180910390a250505050565b6000611ecb8361064e565b905060008282611edb919061281e565b905080600010611eea57600090505b611ef48482611727565b50505050565b60008060028484604051602001611f12929190612ae9565b604051602081830303815290604052604051611f2e9190612b7c565b602060405180830381855afa158015611f4b573d6000803e3d6000fd5b5050506040513d601f19601f82011682018060405250810190611f6e9190612ba8565b9050808514611fa9576040517f0f9391d400000000000000000000000000000000000000000000000000000000815260040160405180910390fd5b600084846000818110611fbf57611fbe612bd5565b5b9050013560f81c60f81b9050603160f81b817effffffffffffffffffffffffffffffffffffffffffffffffffffffffffffff191614156120045760019250505061207d565b603260f81b817effffffffffffffffffffffffffffffffffffffffffffffffffffffffffffff1916141561203d5760029250505061207d565b603360f81b817effffffffffffffffffffffffffffffffffffffffffffffffffffffffffffff191614156120765760039250505061207d565b6004925050505b9392505050565b600081600001549050919050565b6001816000016000828254019250508190555050565b600033905090565b6120b8610625565b6120f7576040517f08c379a00000000000000000000000000000000000000000000000000000000081526004016120ee90612c50565b60405180910390fd5b565b600080600060045460648561210e9190612a25565b6121189190612764565b905060008185612128919061281e565b90508082935093505050915091565b60405180610120016040528060008019168152602001600080191681526020016000600481111561216b5761216a612376565b5b81526020016000600481111561218457612183612376565b5b8152602001600073ffffffffffffffffffffffffffffffffffffffff168152602001600073ffffffffffffffffffffffffffffffffffffffff16815260200160008152602001600081526020016000151581525090565b6000819050919050565b6121ee816121db565b82525050565b600060208201905061220960008301846121e5565b92915050565b600080fd5b600080fd5b612222816121db565b811461222d57600080fd5b50565b60008135905061223f81612219565b92915050565b60006020828403121561225b5761225a61220f565b5b600061226984828501612230565b91505092915050565b60008115159050919050565b61228781612272565b82525050565b60006020820190506122a2600083018461227e565b92915050565b600073ffffffffffffffffffffffffffffffffffffffff82169050919050565b60006122d3826122a8565b9050919050565b6122e3816122c8565b81146122ee57600080fd5b50565b600081359050612300816122da565b92915050565b60006020828403121561231c5761231b61220f565b5b600061232a848285016122f1565b91505092915050565b61233c816122c8565b82525050565b60006020820190506123576000830184612333565b92915050565b6000819050919050565b6123708161235d565b82525050565b7f4e487b7100000000000000000000000000000000000000000000000000000000600052602160045260246000fd5b600581106123b6576123b5612376565b5b50565b60008190506123c7826123a5565b919050565b60006123d7826123b9565b9050919050565b6123e7816123cc565b82525050565b6123f6816122c8565b82525050565b612405816121db565b82525050565b61241481612272565b82525050565b610120820160008201516124316000850182612367565b5060208201516124446020850182612367565b50604082015161245760408501826123de565b50606082015161246a60608501826123de565b50608082015161247d60808501826123ed565b5060a082015161249060a08501826123ed565b5060c08201516124a360c08501826123fc565b5060e08201516124b660e08501826123fc565b506101008201516124cb61010085018261240b565b50505050565b6000610120820190506124e7600083018461241a565b92915050565b6124f68161235d565b811461250157600080fd5b50565b600081359050612513816124ed565b92915050565b6000806000606084860312156125325761253161220f565b5b600061254086828701612230565b935050602061255186828701612504565b925050604061256286828701612230565b9150509250925092565b600080fd5b600080fd5b600080fd5b60008083601f8401126125915761259061256c565b5b8235905067ffffffffffffffff8111156125ae576125ad612571565b5b6020830191508360018202830111156125ca576125c9612576565b5b9250929050565b6000806000604084860312156125ea576125e961220f565b5b60006125f886828701612230565b935050602084013567ffffffffffffffff81111561261957612618612214565b5b6126258682870161257b565b92509250509250925092565b600080604083850312156126485761264761220f565b5b600061265685828601612504565b925050602061266785828601612230565b9150509250929050565b7f4e487b7100000000000000000000000000000000000000000000000000000000600052601160045260246000fd5b60006126ab826121db565b91506126b6836121db565b9250827fffffffffffffffffffffffffffffffffffffffffffffffffffffffffffffffff038211156126eb576126ea612671565b5b828201905092915050565b600060408201905061270b60008301856121e5565b61271860208301846121e5565b9392505050565b6000608082019050612734600083018761227e565b612741602083018661227e565b61274e604083018561227e565b61275b606083018461227e565b95945050505050565b600061276f826121db565b915061277a836121db565b9250817fffffffffffffffffffffffffffffffffffffffffffffffffffffffffffffffff04831182151516156127b3576127b2612671565b5b828202905092915050565b60006040820190506127d3600083018561227e565b6127e0602083018461227e565b9392505050565b60006060820190506127fc60008301866121e5565b61280960208301856121e5565b61281660408301846121e5565b949350505050565b6000612829826121db565b9150612834836121db565b92508282101561284757612846612671565b5b828203905092915050565b600082825260208201905092915050565b7f4f776e61626c653a206e6577206f776e657220697320746865207a65726f206160008201527f6464726573730000000000000000000000000000000000000000000000000000602082015250565b60006128bf602683612852565b91506128ca82612863565b604082019050919050565b600060208201905081810360008301526128ee816128b2565b9050919050565b600060408201905061290a6000830185612333565b61291760208301846121e5565b9392505050565b7f4f776e61626c653a2063616c6c6572206973206e6f7420746865206f776e6572600082015250565b6000612954602083612852565b915061295f8261291e565b602082019050919050565b6000602082019050818103600083015261298381612947565b9050919050565b7f5061757361626c653a2070617573656400000000000000000000000000000000600082015250565b60006129c0601083612852565b91506129cb8261298a565b602082019050919050565b600060208201905081810360008301526129ef816129b3565b9050919050565b7f4e487b7100000000000000000000000000000000000000000000000000000000600052601260045260246000fd5b6000612a30826121db565b9150612a3b836121db565b925082612a4b57612a4a6129f6565b5b828204905092915050565b612a5f816123cc565b82525050565b6000608082019050612a7a6000830187612a56565b612a876020830186612a56565b612a9460408301856121e5565b612aa160608301846121e5565b95945050505050565b600081905092915050565b82818337600083830152505050565b6000612ad08385612aaa565b9350612add838584612ab5565b82840190509392505050565b6000612af6828486612ac4565b91508190509392505050565b600081519050919050565b600081905092915050565b60005b83811015612b36578082015181840152602081019050612b1b565b83811115612b45576000848401525b50505050565b6000612b5682612b02565b612b608185612b0d565b9350612b70818560208601612b18565b80840191505092915050565b6000612b888284612b4b565b915081905092915050565b600081519050612ba2816124ed565b92915050565b600060208284031215612bbe57612bbd61220f565b5b6000612bcc84828501612b93565b91505092915050565b7f4e487b7100000000000000000000000000000000000000000000000000000000600052603260045260246000fd5b7f5061757361626c653a206e6f7420706175736564000000000000000000000000600082015250565b6000612c3a601483612852565b9150612c4582612c04565b602082019050919050565b60006020820190508181036000830152612c6981612c2d565b905091905056fea26469706673582212208b647292fad8f6e2668a5a1047be4fe539f069212de70602832312fa18d635fd64736f6c634300080c0033",
  "devdoc": {
    "author": "DOPE DAO",
    "kind": "dev",
    "methods": {
      "constructor": {
        "details": "Find the list of tableland registries here https://docs.tableland.xyz/limits-and-deployed-contracts#ae3cfc1cfd2941bfa401580aa1e05c5e",
        "params": {
          "tablelandRegistry": "Address of the \"tableland registry\" on the chain this will be deployed on"
        }
      },
      "getGame(uint256)": {
        "returns": {
          "_0": "Game struct"
        }
      },
      "getGameEntryFee(uint256)": {
        "returns": {
          "_0": "Entry fee for a game id. 1/2 the \"pot\""
        }
      },
      "joinGame(uint256,bytes32,uint256)": {
        "params": {
          "encChoice": "sha256 hashed move and password",
          "entryFee": "The amount of entry fee required for this game.",
          "gameId": "ID of game stored in local storage."
        }
      },
      "owner()": {
        "details": "Returns the address of the current owner."
      },
      "paused()": {
        "details": "Returns true if the contract is paused, and false otherwise."
      },
      "renounceOwnership()": {
        "details": "Leaves the contract without owner. It will not be possible to call `onlyOwner` functions anymore. Can only be called by the current owner. NOTE: Renouncing ownership will leave the contract without an owner, thereby removing any functionality that is only available to the owner."
      },
      "resolveGame(uint256)": {
        "details": "Game is not resolvable if timer is still running and both players      have not revealed their move."
      },
      "startGame(bytes32,uint256)": {
        "params": {
          "encChoice": "sha256 hashed move and password",
          "entryFee": "The amount of entry fee required for this game."
        }
      },
      "transferOwnership(address)": {
        "details": "Transfers ownership of the contract to a new account (`newOwner`). Can only be called by the current owner."
      }
    },
    "title": "PAPER, ROCK, SCISSORS",
    "version": 1
  },
  "userdoc": {
    "kind": "user",
    "methods": {
      "constructor": {
        "notice": "Create tableland schema for our leaderboard."
      },
      "getGame(uint256)": {
        "notice": "Returns a single game for Player 1"
      },
      "getTimeLeft(uint256)": {
        "notice": "Return time left after Player 2 has revealed their move."
      },
      "joinGame(uint256,bytes32,uint256)": {
        "notice": "Allows p2 to join an existing game by gameId Requires player to commit their hashed move and password to join. Will fail if player does not have high enough balance on contract."
      },
      "pauseGame()": {
        "notice": "Pause game in case of suspicious activity"
      },
      "revealTimeout()": {
        "notice": "Both players have 12 hours to reveal their move. If one of them fails to do so the other can take the pot."
      },
      "startGame(bytes32,uint256)": {
        "notice": "Whoever calls this makes a new game and becomes \"p1\" Requires a sha256 encoded move and password to be stored as A player can make multiple games at a time."
      },
      "unpauseGame()": {
        "notice": "Unpause game"
      }
    },
    "notice": "A competitive, token-based, on-chain game of skill that persists results to         a public leaderboard stored in tableland.",
    "version": 1
  },
  "storageLayout": {
    "storage": [
      {
        "astId": 7,
        "contract": "src/PRS.sol:PRS",
        "label": "_owner",
        "offset": 0,
        "slot": "0",
        "type": "t_address"
      },
      {
        "astId": 231,
        "contract": "src/PRS.sol:PRS",
        "label": "_status",
        "offset": 0,
        "slot": "1",
        "type": "t_uint256"
      },
      {
        "astId": 130,
        "contract": "src/PRS.sol:PRS",
        "label": "_paused",
        "offset": 0,
        "slot": "2",
        "type": "t_bool"
      },
      {
        "astId": 2071,
        "contract": "src/PRS.sol:PRS",
        "label": "minEntryFee",
        "offset": 0,
        "slot": "3",
        "type": "t_uint256"
      },
      {
        "astId": 2074,
        "contract": "src/PRS.sol:PRS",
        "label": "taxPercent",
        "offset": 0,
        "slot": "4",
        "type": "t_uint256"
      },
      {
        "astId": 2078,
        "contract": "src/PRS.sol:PRS",
        "label": "_balances",
        "offset": 0,
        "slot": "5",
        "type": "t_mapping(t_address,t_uint256)"
      },
      {
        "astId": 1140,
        "contract": "src/PRS.sol:PRS",
        "label": "revealTimeout",
        "offset": 0,
        "slot": "6",
        "type": "t_uint256"
      },
      {
        "astId": 1147,
        "contract": "src/PRS.sol:PRS",
        "label": "_games",
        "offset": 0,
        "slot": "7",
        "type": "t_struct(Counter)583_storage"
      },
      {
        "astId": 1152,
        "contract": "src/PRS.sol:PRS",
        "label": "Games",
        "offset": 0,
        "slot": "8",
        "type": "t_mapping(t_uint256,t_struct(Game)1136_storage)"
      },
      {
        "astId": 1155,
        "contract": "src/PRS.sol:PRS",
        "label": "_tableland",
        "offset": 0,
        "slot": "9",
        "type": "t_contract(ITablelandTables)1018"
      },
      {
        "astId": 1157,
        "contract": "src/PRS.sol:PRS",
        "label": "_gameTableId",
        "offset": 0,
        "slot": "10",
        "type": "t_uint256"
      },
      {
        "astId": 1159,
        "contract": "src/PRS.sol:PRS",
        "label": "_gameTable",
        "offset": 0,
        "slot": "11",
        "type": "t_string_storage"
      },
      {
        "astId": 1162,
        "contract": "src/PRS.sol:PRS",
        "label": "_tablePrefix",
        "offset": 0,
        "slot": "12",
        "type": "t_string_storage"
      }
    ],
    "types": {
      "t_address": {
        "encoding": "inplace",
        "label": "address",
        "numberOfBytes": "20"
      },
      "t_bool": {
        "encoding": "inplace",
        "label": "bool",
        "numberOfBytes": "1"
      },
      "t_bytes32": {
        "encoding": "inplace",
        "label": "bytes32",
        "numberOfBytes": "32"
      },
      "t_contract(ITablelandTables)1018": {
        "encoding": "inplace",
        "label": "contract ITablelandTables",
        "numberOfBytes": "20"
      },
      "t_enum(Choices)1115": {
        "encoding": "inplace",
        "label": "enum PRS.Choices",
        "numberOfBytes": "1"
      },
      "t_mapping(t_address,t_uint256)": {
        "encoding": "mapping",
        "key": "t_address",
        "label": "mapping(address => uint256)",
        "numberOfBytes": "32",
        "value": "t_uint256"
      },
      "t_mapping(t_uint256,t_struct(Game)1136_storage)": {
        "encoding": "mapping",
        "key": "t_uint256",
        "label": "mapping(uint256 => struct PRS.Game)",
        "numberOfBytes": "32",
        "value": "t_struct(Game)1136_storage"
      },
      "t_string_storage": {
        "encoding": "bytes",
        "label": "string",
        "numberOfBytes": "32"
      },
      "t_struct(Counter)583_storage": {
        "encoding": "inplace",
        "label": "struct Counters.Counter",
        "members": [
          {
            "astId": 582,
            "contract": "src/PRS.sol:PRS",
            "label": "_value",
            "offset": 0,
            "slot": "0",
            "type": "t_uint256"
          }
        ],
        "numberOfBytes": "32"
      },
      "t_struct(Game)1136_storage": {
        "encoding": "inplace",
        "label": "struct PRS.Game",
        "members": [
          {
            "astId": 1117,
            "contract": "src/PRS.sol:PRS",
            "label": "p1SaltedChoice",
            "offset": 0,
            "slot": "0",
            "type": "t_bytes32"
          },
          {
            "astId": 1119,
            "contract": "src/PRS.sol:PRS",
            "label": "encChoice",
            "offset": 0,
            "slot": "1",
            "type": "t_bytes32"
          },
          {
            "astId": 1122,
            "contract": "src/PRS.sol:PRS",
            "label": "p1ClearChoice",
            "offset": 0,
            "slot": "2",
            "type": "t_enum(Choices)1115"
          },
          {
            "astId": 1125,
            "contract": "src/PRS.sol:PRS",
            "label": "p2ClearChoice",
            "offset": 1,
            "slot": "2",
            "type": "t_enum(Choices)1115"
          },
          {
            "astId": 1127,
            "contract": "src/PRS.sol:PRS",
            "label": "p1",
            "offset": 2,
            "slot": "2",
            "type": "t_address"
          },
          {
            "astId": 1129,
            "contract": "src/PRS.sol:PRS",
            "label": "p2",
            "offset": 0,
            "slot": "3",
            "type": "t_address"
          },
          {
            "astId": 1131,
            "contract": "src/PRS.sol:PRS",
            "label": "entryFee",
            "offset": 0,
            "slot": "4",
            "type": "t_uint256"
          },
          {
            "astId": 1133,
            "contract": "src/PRS.sol:PRS",
            "label": "timerStart",
            "offset": 0,
            "slot": "5",
            "type": "t_uint256"
          },
          {
            "astId": 1135,
            "contract": "src/PRS.sol:PRS",
            "label": "resolved",
            "offset": 0,
            "slot": "6",
            "type": "t_bool"
          }
        ],
        "numberOfBytes": "224"
      },
      "t_uint256": {
        "encoding": "inplace",
        "label": "uint256",
        "numberOfBytes": "32"
      }
    }
  }
}